:020000040800F2
:100000000010002085010008890100088B0100080C
:1000100000000000000000000000000000000000E0
:10002000000000000000000000000000A501000822
:100030000000000000000000A7010008A90A000855
:10004000B501000800000000B5010008B501000876
:10005000B50100088912000899120008A9120008C9
:1000600000000000C90D0008D90D0008F10D0008BE
:10007000B5010008B5010008B50100080000000046
:10008000B50100080000000000000000B5010008F4
:10009000B5010008B5010008B5010008B501000868
:1000A000B5010008B5010008B50100084D160008AB
:1000B000B501000800000000000000000000000082
:1000C0005FF808F173B500F07CFB0022224B234956
:1000D000D3188B4204D22249895804321960F5E7BB
:1000E000204B214A934202D2002204C3F9E700F0D8
:1000F0006CFB684601A900F059FB1C4B00251E1C37
:100100001B4CE41AA410A54204DAAB00F35898473C
:100110000135F8E7174B00251E1C174CE41AA410F4
:10012000A54204DAAB00F35898470135F8E7009888
:10013000019901F0C1F8114B051C1E1C104CE41A6A
:10014000A410002C04DD013CA300F3589847F8E705
:10015000281C00F023FBC046000000209400002073
:10016000542100089800002028020020E001000827
:10017000E0010008E0010008E8010008E8010008CB
:10018000EC01000809480047FEE7042071460842D8
:1001900002D0EFF3098001E0EFF308807146044AD2
:1001A0001047FEE7FEE7FEE770470000C5000008C5
:0601B000A3010008FEE7B8
:1001B8005421000800000020940000205421000869
:1001C8000000000000000000980000202802002025
:1001D8000000000000000000090E0008F5130008E8
:0401E8006114000896
:1001F0000268204B13400360002303604360836068
:10020000C3601D4B984203D11C4A0F2153682DE057
:100210001B4B984203D1194AF021536826E0194B31
:10022000984204D1F021154A090153681EE0164B8B
:10023000984204D1F021114A0902536816E0134B89
:10024000984204D1F0210D4A090353680EE0104B87
:10025000984204D1F021094A0904536806E00D4B85
:10026000984205D1F021054A090553680B435360B4
:100270007047C046FEFF0000080002400000024038
:100280001C0002403000024044000240580002407E
:100290006C00024080000240034B1B681840431E64
:1002A0009841C0B27047C04600000240014B586000
:1002B0007047C04600000240837910B50168002BEA
:1002C00023D0CA43144B1C6814401C605C68224055
:1002D0005A600279D21814682143116002689C6840
:1002E000D1430C409C60DC682140D96041791029E1
:1002F00006D1996811439960D9680A43DA600AE027
:10030000054BCB1819680A4304E0034A03799B188C
:100310001A688A431A6010BD00040140034B5B69F0
:100320001840431E9841C0B27047C04600040140C7
:10033000014B58617047C04600040140F7B50022E8
:100340000B68019301239340019E1E409E422DD1D4
:100350000C79631E012B16D85700BC46032765464F
:10036000AF408368BB4383604B798768AB403B43B6
:1003700083608388B34383808E798788331C93405E
:100380003B439BB2838003235600B340DB43B4401E
:1003900007681F40076007683C430460C468234047
:1003A000C360CB79C468B3402343C3600132102AD1
:1003B000C8D1F7BD008A80B270478161704701855E
:1003C0007047072310B50F240B409B009A409C40B8
:1003D000131CC90889004018016AA1430162016A1F
:1003E0000B43036210BD0000827870B50378002AC9
:1003F0001DD0032499082340DC00FF23104A890004
:1004000089181A1CC025A240AD004E599643427867
:1004100092011A40131CA34033434B511F2302780F
:10042000134001229A40131C054A136006E01F2264
:1004300013401E3A9A40131C024AD36770BDC0464F
:1004400000E100E004E100E0F8B50C23494D041C94
:100450006868184001F008F91F1F1F1F1F1F1F1F8A
:10046000071F1F1F1D00C02368686A688002000FF5
:100470005B02861C1A4201D13F4807E03D4B3F48D2
:10048000D96A0F231940013101F0F8F87043206058
:1004900004E03B4B00E0394B0020236021686B688F
:1004A0000A1C384E1B061B0FF35CDA40131C6260FB
:1004B0006A685205520FB25CD340A3602A6BD20522
:1004C00001D4314A06E02B4A5268520401D45A083A
:1004D00000E09A08E2602A6B520601D42B4A01E040
:1004E0008022120222612A6BD20602D4234A626160
:1004F00000E0616103222F6B1E4E174201D1A36100
:1005000012E0376B1740012F01D1A1610CE0376B6E
:100510001740022F02D18022120204E0366B3240D3
:10052000032A01D1154AA261C0222F6B9202114EFB
:10053000174215D08027336B7F021340BB4201D195
:10054000E1610EE08021336B890213408B4202D1BE
:1005500080231B0204E0336B1340934201D1074B0D
:10056000E3612B6B1B0602D4054B236200E0206283
:10057000F8BDC0460010024000093D0000127A009C
:10058000006CDC0200000020809FD500128000007B
:10059000044B5A69002902D01043586101E082439C
:1005A0005A61704700100240044B9A69002902D03A
:1005B0001043986101E082439A6170470010024045
:1005C000044BDA68002902D01043D86001E082436E
:1005D000DA60704700100240044B1A69002902D00B
:1005E0001043186101E082431A6170470010024015
:1005F000032310B50F240B409B0098409C40031C24
:10060000054A8908890089188A68A2438A608A682D
:1006100013438B6010BDC0460000014008B5194B64
:1006200098420AD180200121C001FFF7C9FF802034
:100630000021C001FFF7C4FF22E0134B984207D10D
:10064000802001218002FFF7C7FF8020800214E094
:100650000E4B984207D180200121C002FFF7BCFF5A
:100660008020C00209E00A4B984209D18020012174
:100670000003FFF7B1FF802000030021FFF7ACFF6C
:1006800008BDC0460038014000440040004800401A
:10069000004C00400122F0B50D1C03688BB0934361
:1006A00003604268204B041C13408A681343436074
:1006B00002681E4B1A40CB6849680B4329690B43FB
:1006C0001343036082681A4B13406A6913438360C3
:1006D00001A8FFF7B9FE174B079E9C4204D0164BAA
:1006E000089E9C4200D0039E23682F681B0400D5FF
:1006F0007600391C301C00F0C1FF391C051C301C71
:1007000001F042F800237F08B9425B41ED182368ED
:100710001B0404D5094B2A07520F1D401543ADB2E7
:10072000A5810BB0F0BDC046FFCFFFFFF3E9FFFF8F
:10073000FFFCFFFF0038014000440040F0FF0000D4
:1007400001220368002901D0134300E093430360B2
:100750007047C905C90D01857047808CC005C00D63
:100760007047012310B58CB2C9B28B40240A191C02
:10077000022C01D1043002E0032C00D108300368C0
:10078000002A02D01943016001E08B43036010BDD1
:10079000C0690840411E8841C0B2704708B500F0EA
:1007A00019F808B50120FFF7F9FF000001230360E5
:1007B000014B0B607047C0461000002008B5FFF7E2
:1007C000F0FF08B500F012F808BD08B500F088F891
:1007D00008BD0000BFF34F8F024A034BDA60BFF33E
:1007E0004F8FFEE70400FA0500ED00E00121344BD5
:1007F00082B01A680A431A605868324A02405A6046
:100800001868314A02401A601868304A02401A607B
:1008100058682F4A02400F205A60DA6A8243DA622F
:10082000186B2C4A02401A635A6B8A435A6300229F
:1008300080219A60009201921A6849020A431A6064
:1008400080221968920211400191009901310091B2
:100850000199002904D1A0210098C9018842EFD153
:1008600019680A4000D001220192019A012A25D17B
:100870001121194A11605A685A605A685A605968B9
:10088000164A0A4088215A605A6849030A4380215F
:100890005A601A6849040A431A601968084A8901AB
:1008A000FBD50320516881435160516801380143F1
:1008B00051600C2259680A40082AFAD102B07047E8
:1008C000001002400CB8FF08FFFFF6FEFFFFFBFF21
:1008D000FFFFC0FFACFEFFFF00200240FF7FC0FF14
:1008E0000C2370B5134D144E6A681340042B01D0CD
:1008F000082B02D0114B336013E0C0236C686A6888
:10090000A402240F5B0202341A4201D10C4806E013
:100910000F23E96A09481940013100F0AFFE444352
:1009200034606B68074A1B061B0FD35C3268DA40E1
:10093000326070BD001002402800002000127A00D2
:1009400000093D001800002001220023044930B5B1
:100950000C684D6812196B410A604B6030BDC0468F
:10096000A000002038B5154B1549186800F086FE28
:10097000144B00241860FA23002580219B00584363
:10098000114B124A1860124B09061C605D60136A15
:1009900001381B021B0A0B4313620E4B98420CD802
:1009A0000D494860C020136A00061B021B0A03435E
:1009B000136200238B6007330B6038BD28000020D2
:1009C00040420F00A80000209C00002000ED00E045
:1009D000A0000020FFFFFF0010E000E0021C002349
:1009E000064930B50C684D6812196B410C684D68AA
:1009F000AB42FBD801D1A242F8D830BDA000002004
:100A0000044B1A685B689942FAD801D19042F7D832
:100A10007047C046A0000020F7B5071C72B61E4BF9
:100A20001E4E1B68B068191C009300F027FE1C4B7B
:100A30001C685D6862B601961E1C874212D9FA21B5
:100A40003F1A781E890000F0A9FE164B013043437F
:100A5000DF19009B7F427B43021C1F1C0023A4184C
:100A60005D4109E0009BC71B7B431F1C04E09D42C6
:100A700007D1944205D9C046326873689D42FAD8BE
:100A8000F5E7019B9B68BB4205D932687368A242B7
:100A900001D1AB42EFD0F7BDA800002010E000E08C
:100AA000A000002018FCFFFF08B5024B1B68984708
:100AB00008BDC0462C000020002343608360C36053
:100AC0004B68016003617047002238B503699342A7
:100AD00018D004688268013B65680361531C836019
:100AE000094BAA4201D223689B18197003688268D7
:100AF0005B689A4201D3002383600C30012100F02F
:100B000005F80122101C38BDAC00002072B6036845
:100B1000C918016062B6704770470000F0B5334BEA
:100B200085B09B68041C0293314B1E685F68314B93
:100B30001B680393C31C0120DB7F98406B46019028
:100B40009D88281CFFF7EAFB00284CD0281CFFF7E3
:100B5000EFFBE068FFF72EFC258C022D43D96B4696
:100B60009B881840C01A42424241D3B20193102DD3
:100B700001D1002B37D101232A1C01991A408A4246
:100B800001D0002301E0632D01D123842BE001205B
:100B90000021FA22801979419200002300F010FF11
:100BA000061C0F1C0298039900F068FD0023021C2C
:100BB000B61A9F41019B002B02D02661676110E0AD
:100BC0002B1C133B4F2B0CD82369F61A3223B3424C
:100BD000B641A269E36992185B4176421643A66169
:100BE000E3610135258405B0F0BDC04610E000E0AA
:100BF000A0000020A800002010B5041C00F030FD6B
:100C0000201C10BD10B5041C0C48E16008302060A9
:100C10000020E11CA060201D6460CA77C377002219
:100C20000023226163610122FF235242A261E3613A
:100C3000029900F024FB201C10BDC046D01E000805
:100C4000F0B50026041C0684012089B0011CFFF7C2
:100C5000ABFC9022E368E51CD205934206D1301C20
:100C6000E97FFFF7C5FC8020800208E0194A934223
:100C700008D10120E97FFFF7BBFC8020C0020121E1
:100C8000FFF786FCEE7F01252B1CB34000271E1CBE
:100C900004A99BB2E068019304938D71CD710D712D
:100CA0004F71FFF74BFBE068B1B2FFF786FB019B8A
:100CB00006A8069310230434077143718571FFF76A
:100CC000FBFAE37F03A8037047708570FFF78CFB86
:100CD00009B0F0BD000400480122FF2370B50226D0
:100CE00052428261C3610684C31CDD7F0123AB4095
:100CF000041C9DB2291CC068FFF761FB301CFFF784
:100D00006DFE291CE068FFF758FB1023238470BD9B
:100D100010B5038C041C0020012B0DD1A1690A0A17
:100D20000B0CD3180A0ED318E2699B18DAB2CBB2B7
:100D3000D31A5A425A41D0B20023238410BDC3694A
:100D40001A0683691B0A134398B21A0403D55B047D
:100D50005B0C5B4298B200B27047C36980691B02AA
:100D6000000E18430005000D704737B51D1C002309
:100D70000260041C83600373437341600120011C03
:100D8000FFF706FC6068FFF733FA012301A805703E
:100D900043708370FFF728FB201C3EBD10B5041C78
:100DA0000068FFF779FA431E9841C3B2A0686373E5
:100DB000002804D0002B02D003689B689847206865
:100DC000FFF774FA10BD000008B50248FFF7E6FF10
:100DD00008BDC046B000002008B50348FFF7DEFF9D
:100DE0000248FFF7DBFF08BDC0000020D000002054
:100DF00008B50348FFF7D2FF0248FFF7CFFF08BD51
:100E0000E0000020F000002008B51149022209236B
:100E10001048FFF7AAFF104920220A230F48FFF7C6
:100E2000A4FF80220E4992000A230E48FFF79DFF7F
:100E300080220D4992010B230C48FFF796FF802278
:100E40000B480C4992020B23FFF78FFF08BDC046E9
:100E500008000240B00000201C000240C00000203A
:100E600030000240D000002044000240E00000209A
:100E7000F000002058000240F0B585B003938B1EAF
:100E8000051C0F1C0A9E222B04D921482121214A2E
:100E9000214B05E0012A05D822211D481D4A1F4B80
:100EA000FFF78CFC002E04D119482321194A1C4B52
:100EB000F6E70023B3540193984204DA2D333370DC
:100EC0002C3B45420193531E1C1C0293019B9C42E8
:100ED00012DB002D0DD0281C391C00F055FC114BE5
:100EE000281C5B5C391C335500F0C8FB013C051C19
:100EF000ECE7029B9C42EEDA019B9C4204DB6B46D2
:100F00001B7B3355013CF7E7301C05B0F0BDC046F4
:100F1000E41E000808200008F71E00080E1F000845
:100F2000191F0008221F0008F7B501938B1E061C2D
:100F30000F1C089D222B04D91B483A211B4A1C4B2D
:100F400005E0002A05D13B211748184A194BFFF745
:100F500035FC002D04D114483C21144A164BF6E709
:100F60000023AB54531E1C1C0093002C12DB002EDC
:100F70000DD0301C391C00F007FC104B301C5B5CA2
:100F8000391C2B5500F07AFB013C061CEDE7009B59
:100F90009C42EEDA002C04DB6B461B792B55013C9E
:100FA000F8E7281CFEBDC046E41E0008C81F000864
:100FB000F71E0008471F0008191F0008221F00081D
:100FC000F0B589B01C1C0EAB20CB061C1B780F1C87
:100FD0005BB205920793002D03D0EB1C9C4202D319
:100FE00006E0012C04D827484D21274A274B06E06C
:100FF000109B002B05D14E212248234A244BFFF79A
:10100000DDFBF30F069300D07642301C391C00F054
:1010100035FB0122002304900392AB4205D0039AD2
:10102000059901334A430392F7E7002D01D0013CB3
:10103000641B069B0498002B00D04042109B05992E
:101040000093221C079BFFF717FF002D17D02E23BC
:101050000021109A03981355049A0B1C7A43B21A74
:1010600000F0AEFC3A1C002300F08AFC109B013417
:101070001C19009405992A1C3023FFF755FF10987E
:1010800009B0F0BDE41E000847200008521F000808
:10109000191F0008704700000122F0B51F4B85B0F2
:1010A0009B68041C02931E4B1E685F681D4B1B68E7
:1010B0000393437F9A406B4601929D88281CFFF75B
:1010C0002DF9002828D001200021FA228019794129
:1010D0009200002300F074FC061C0F1C0298039978
:1010E00000F0CCFA0023021CB61A9F416B469B8885
:1010F000281C0193FFF71CF9A069FFF75BF9019B1E
:101100001840984202D1A660E76005E0A268E36853
:10111000134301D0B61A666005B0F0BD10E000E0E0
:10112000A0000020A800002010B5041C00F098FAD0
:10113000201C10BD38B5041C04A805780A48227785
:101140000830206000206377606100220023606027
:10115000201CA161A5772461A260E360103005998D
:1011600000F08DF8201C38BDA8200008F0B5051C43
:10117000012089B0011CFFF717FA9022AB69D20554
:10118000934207D1802001218002FFF701FA697F95
:10119000002009E0224A934208D180200121C002A8
:1011A000FFF7F6F90120697FFFF722FA01232F7F6D
:1011B0000122BB401F1C6B7F00269A40BBB20493E8
:1011C000012304ACA869211C01922371A671E67168
:1011D0006671FFF7B3F8B9B2A869FFF7F0F86B468C
:1011E0009F880123A3710123211CA86963710497BF
:1011F000E6712671FFF7A2F8102306A843710F3B92
:10120000067183710697FFF757F8062303A803704A
:10121000053B46708370FFF7E7F809B0F0BDC046A4
:101220000004004838B50023002243600023826098
:10123000C3600123047F051CA3409CB2211C80696C
:10124000FFF7BBF80F20FFF7E7FBA869211CFFF7AA
:10125000B6F838BD08B5FA214368AA20890058437A
:1012600000F00CFA80B208BD10B5041C002C05D0AB
:10127000206803689B6898476468F7E710BD0B68AF
:10128000436008607047000008B5024B1868FFF71C
:10129000EBFF08BD0801002008B5024B1868FFF7F6
:1012A000E3FF08BD0401002008B5024B1868FFF7F2
:1012B000DBFF08BD00010020F0B589B0FFF752FB4D
:1012C0004348FFF753FF4348FFF7BAFCE121424888
:1012D000490200F079F9414BFA2218685968002355
:1012E00092008018594100270490059104980599AF
:1012F000FFF786FB01373648FFF794FF0026FB0611
:1013000003D13448FFF7E8FC01361E20049B059CFE
:101310000021C0186141FFF773FB2D48FFF79AFFCA
:101320002F4C0A21302300940422FFF7FDFD2023D7
:1013300023710023284D211C281C637100F058F9EB
:10134000002E3BD0281C274900F052F9214E301CBA
:10135000FFF7DEFC00282DD0301CFFF7F0FC0690D4
:10136000301CFFF7FAFC30260A2101230A1C0790E3
:1013700000930196033302940698FFF721FE281C80
:10138000211C00F035F9281C174900F031F90A2119
:1013900001230A1C00930196033302940798FFF778
:1013A0000FFE281C211C00F023F9281C0F4900F017
:1013B0001FF903E0281C0E4900F026F9049805994E
:1013C0006422002380185941049005918EE7C0469D
:1013D000D8010020F8010020C8010020A000002052
:1013E0000C010020C1200008BC200008C02000081B
:1013F000C420000813B51149114C0B1C08330B60B5
:101400002023201C4B60FFF757FB221C0D490E4880
:1014100000F048F80D4B0E490093012205230D48BA
:10142000FFF7F0FB0623902100930B4BC9050193B6
:10143000032202230948FFF77DFE13BD8C01002023
:10144000B401002000380140C8010020080100203C
:1014500000040048F801002004010020D801002009
:1014600008B5024800F03AF808BDC046C80100209F
:1014700070B5051C141C5618B4420BD02868802186
:10148000FFF786F90028F9D021782868FFF761F97D
:101490000134F1E728684021FFF77AF90028F9D0F4
:1014A00070BD000008B500230372074B0160426065
:1014B000994205D005483921054A064BFFF77EF9C8
:1014C000054B186008BDC04600380140ED200008FB
:1014D0001A210008FF2000082002002010B500217A
:1014E000041C0068FFF72CF9034B1A68944201D1E1
:1014F00000221A60201C10BD20020020F0B52D4BE8
:10150000026887B0061C01919A424DD180200121CA
:10151000C001FFF749F8802001218002FFF738F869
:101520001B2302AA1371902080230125002704ACFD
:10153000DB00211CC0050493A771E5712771677159
:10154000FEF7FCFE802390209B000493FF3BFF3BB3
:10155000211CC0052371A771E771FEF7EFFE9020F3
:101560002A1CC0050921FEF72CFF90202A1C0A2105
:10157000C005FEF726FF3068FFF750F80199306884
:10158000FFF788F8032302AA03A853719571FEF7A9
:101590002BFF30682A1C0849FFF7E3F83068291C44
:1015A000FFF7CEF807B0F0BD04488921044A054B87
:1015B000FFF704F90038014005010500ED2000089F
:1015C000C6200008FF2000087FB500230C220091F0
:1015D000694601930293039304920593FFF78EFFEC
:1015E00007B000BD08B5002901D0FFF741FF08BDD5
:1015F00038B5051C081C0C1C00F060FC221C011CEA
:10160000281CFFF7EFFF38BD10B5041CFFF7F0FFF3
:10161000201C0221014AFFF72BFF10BDC12000084A
:1016200010B52021041C0068FFF7B2F800280BD089
:101630002068FFF792F8C1B26068FFF745FA01230E
:101640005840237A1843207210BD000008B5034BA0
:101650001868002801D0FFF7E3FF08BD2002002032
:1016600008B500F0DBFB08BD02B47146490849002B
:10167000095C49008E4402BC7047C0460022430802
:101680008B4274D303098B425FD3030A8B4244D34A
:10169000030B8B4228D3030C8B420DD3FF2209028C
:1016A00012BA030C8B4202D31212090265D0030B4B
:1016B0008B4219D300E0090AC30B8B4201D3CB0341
:1016C000C01A5241830B8B4201D38B03C01A524183
:1016D000430B8B4201D34B03C01A5241030B8B4285
:1016E00001D30B03C01A5241C30A8B4201D3CB0270
:1016F000C01A5241830A8B4201D38B02C01A524155
:10170000430A8B4201D34B02C01A5241030A8B4257
:1017100001D30B02C01A5241CDD2C3098B4201D36F
:10172000CB01C01A524183098B4201D38B01C01AED
:10173000524143098B4201D34B01C01A5241030964
:101740008B4201D30B01C01A5241C3088B4201D313
:10175000CB00C01A524183088B4201D38B00C01AC0
:10176000524143088B4201D34B00C01A5241411AE7
:1017700000D20146524110467047FFE701B50020F4
:1017800000F0FCF802BDC0460029F7D003B5FFF712
:1017900075FF0EBC4243891A1847C04603460B43E7
:1017A0007FD4002243088B4274D303098B425FD35A
:1017B000030A8B4244D3030B8B4228D3030C8B4286
:1017C0000DD3FF22090212BA030C8B4202D312126C
:1017D000090265D0030B8B4219D300E0090AC30B41
:1017E0008B4201D3CB03C01A5241830B8B4201D3EE
:1017F0008B03C01A5241430B8B4201D34B03C01AD7
:101800005241030B8B4201D30B03C01A5241C30A4E
:101810008B4201D3CB02C01A5241830A8B4201D3BF
:101820008B02C01A5241430A8B4201D34B02C01AA9
:101830005241030A8B4201D30B02C01A5241CDD24E
:10184000C3098B4201D3CB01C01A524183098B4299
:1018500001D38B01C01A524143098B4201D34B0182
:10186000C01A524103098B4201D30B01C01A5241E5
:10187000C3088B4201D3CB00C01A524183088B426C
:1018800001D38B00C01A524143088B4201D34B0055
:10189000C01A5241411A00D20146524110467047C7
:1018A0005DE0CA0F00D04942031000D340425340CC
:1018B00000229C4603098B422DD3030A8B4212D38C
:1018C000FC22890112BA030A8B420CD389019211BE
:1018D0008B4208D3890192118B4204D389013AD0FB
:1018E000921100E08909C3098B4201D3CB01C01AD0
:1018F000524183098B4201D38B01C01A52414309E3
:101900008B4201D34B01C01A524103098B4201D3D0
:101910000B01C01A5241C3088B4201D3CB00C01A3D
:10192000524183088B4201D38B00C01A5241D9D255
:1019300043088B4201D34B00C01A5241411A00D2D6
:101940000146634652415B10104601D34042002BD2
:1019500000D54942704763465B1000D3404201B551
:10196000002000F00BF802BD0029F8D003B5FFF706
:1019700015FF0EBC4243891A1847C0467047C0463F
:10198000002B11D1002A0FD1002900D1002802D04C
:101990000021C943081C07B4024802A14018029064
:1019A00003BDC046D9FFFFFF03B4684601B50298E6
:1019B00000F04CF8019B9E4602B00CBC7047C0463C
:1019C000F0B54F46464605042D0C2C1CC0B4170438
:1019D000160C3F0C9946030C7C4375435F437343DD
:1019E0007D19260CAD199C46AF4203D980235B02BA
:1019F0009846C4444B465143434324042E0C240CC4
:101A00002D0466442C1959188919201C0CBC9046C9
:101A10009946F0BDF0B583B0161C1F1C00900191D3
:101A200000F04CF8041C0D1C221C2B1C301C391C13
:101A3000FFF7C6FF009A019B121A8B410899201CE0
:101A40000A604B60291C03B0F0BDC046F0B5141C01
:101A500083B01D1C0090019100F028F9221C2B1C62
:101A6000061C0F1CFFF7ACFF009A019B121A8B415A
:101A70000899301C0A604B60391C03B0F0BDC046A9
:101A80001C2101231B04984201D3000C10391B0AAE
:101A9000984201D3000A08391B09984201D3000972
:101AA000043902A2105C40187047C04604030202C9
:101AB000010101010000000000000000F0B54446F3
:101AC0005F4656464D46F0B41C1C85B0002900DA2E
:101AD000A9E00F1C0021061C8846101C191C002CB4
:101AE00000DA97E0341C3D1C82468946B94273D81F
:101AF00070D04946504600F085F98346391C301CA9
:101B000000F080F95B46181A031C8346203B9C4674
:101B100000D59CE0002300225146009201936346C9
:101B20009940019151468140019B0091BB4200D9EF
:101B300083E000D17EE0009A019B341C3D1CA41A76
:101B40009D416346002B00DA9AE0002600270296AA
:101B5000039701369E400396012686400296002890
:101B600000D171E00099019AD30799464B464E087F
:101B70001E435708002301220CE0AF4201D1A642C8
:101B80000AD8A41BBD4124196D410138A4185D4138
:101B9000002806D0AF42F0D9013824196D41002841
:101BA000F8D12022029E039F5B46524236196F41B4
:101BB00099185AD4281CC8402C1C5B46DC400029CC
:101BC00068DB041C8C40231C59468840021CB61A52
:101BD0009F4103E0B0428CD90026002741464B1EAE
:101BE0009941002300910193009A019B00255442E2
:101BF0009D41331C6340181C3B1C6B40191C009B0F
:101C0000019CC018614105B03CBC90469946A24673
:101C1000AB46F0BD4346DB430C1C9846131C002129
:101C20005842A1415EE7002746428F4101214942C7
:101C3000884652E7B14200D87DE700260027029689
:101C40000397002800D08DE7029E039FC6E720215E
:101C50005346091ACB400022191C0023009201931D
:101C60004B4683400B4301935CE75A4620239B1A63
:101C70002A1C9A40201C131C5A46D04018439BE74C
:101C800020260027331A0026029603970127DF40FB
:101C9000039761E75B4620215D46C91A031CAC40EF
:101CA000CB40191C231C0B438EE7C046F0B54546BC
:101CB0004E465746E0B4041C82B00D1C914698462F
:101CC0008B4262D85FD04146484600F09BF8291C01
:101CD000061C201C00F096F82023311A5B428A462D
:101CE000C81865D44B4683401F1C4B468B401E1CB6
:101CF000AF4258D855D0A41BBD41002800DA77E088
:101D000000220023009201930132824001920123BC
:101D10008B40009300293CD0FB0798464046720850
:101D20007B080243012600270CE0AB4201D1A2420E
:101D30000AD8A41A9D4124196D410139A4197D4185
:101D4000002906D0AB42F0D9013924196D41002990
:101D5000F8D1202200980199534652420019694156
:101D60009E183AD42F1CF7405346DD40002E29DB45
:101D70003C1CB440231C5446A7403A1C801A99418D
:101D80000090019105E082429DD900230024009338
:101D900001940098019902B01CBC90469946A24655
:101DA000F0BDA342A7D90022002300920193B1E71E
:101DB00020224B46521AD3401A1C43468B401F1C0C
:101DC000174392E7534620245646E41A3B1CB5407D
:101DD000E3401C1C2B1C2343CDE7524620239B1AB7
:101DE0002A1C9A40271C131C5246D7401F43BBE7AE
:101DF00020230022581A0023009201930132C2408E
:101E0000019284E710B5002903D1FFF739FE203095
:101E100002E0081CFFF734FE10BDC04608B5034BB6
:101E2000011C186800F004F808BDC04690000020AE
:101E300030B500293ED004390B68002B00DAC918F0
:101E40001D4A1368141C002B02D14B60116031E055
:101E500099420DD208680A189A4203D11368C31830
:101E60000B6053684B60216024E08A4203D8131C46
:101E70005A68002AF9D11D685C198C420BD1096897
:101E8000691858181960904214D1106852680918DE
:101E900019605A600EE08C4202D90C23036009E0FD
:101EA00008680C18944203D114685268001908603D
:101EB0004A60596030BDC046240200200023C25C45
:101EC0000133002AFBD1581E7047000000000000BB
:101ED0000000000000000000190B0008F90B0008CA
:101EE0001D0B00082E2E2F7372632F64746F737492
:101EF00072662E6370700062617365203E2031202F
:101F000026262062617365203C3D203336007769C8
:101F1000647468203E3D20320062756620213D20B9
:101F2000300030313233343536373839414243446A
:101F300045464748494A4B4C4D4E4F5051525354D9
:101F400055565758595A007769647468203E3D20A9
:101F500031002870726563203E20302026262077CD
:101F600069647468203E3D20707265632B332920BC
:101F70007C7C202870726563203D3D203020262621
:101F8000207769647468203E3D20322900287072F1
:101F90006563203E203020262620776964746820FF
:101FA0003E3D20707265632B3229207C7C20287096
:101FB000726563203D3D20302026262077696474B9
:101FC00068203E3D20312900636861722A207574C3
:101FD0006F7374722875696E7433325F742C207558
:101FE0006E7369676E656420696E742C20756E73FC
:101FF00069676E656420696E742C20636861722C59
:1020000020636861722A2900636861722A206974FA
:102010006F73747228696E7433325F742C20756E1E
:102020007369676E656420696E742C20756E7369C0
:10203000676E656420696E742C20636861722C2061
:10204000636861722A2900636861722A2064746F70
:102050007374727828696E7433325F742C20756ED5
:102060007369676E656420696E742C20756E736980
:10207000676E656420696E742C20756E7369676E77
:10208000656420696E742C20756E7369676E656473
:1020900020696E742C20636861722C206368617201
:1020A0002A290000000000000000000000000000DD
:1020B000951000082911000899100008430D0A0026
:1020C000250D0A002D00766F6964205365726961E1
:1020D0006C3A3A73657475702855534152545F4990
:1020E0006E6974547970654465662A29002E2E2F16
:1020F0007372632F73657269616C2E637070002157
:1021000022696E76616C6964205553415254207384
:10211000656C656374696F6E220053657269616CEA
:102120003A3A53657269616C2855534152545F5471
:102130007970654465662A2C20626F756E646564EB
:0C2140005F6275666665722A2900430024
:08214C0070F9FF7F01000000A3
:102154000000000001020304010203040607080949
:1021640098000020000000000000000000000000B3
:102174000102030406070809006CDC02490900088F
:10218400000000000000000000000000000000004B
:10219400000000000000000000000000000000003B
:1021A4004A210008000000000000000000000000B8
:1021B400000000000000000000000000000000001B
:1021C400000000000000000000000000000000000B
:1021D40000000000000000000000000000000000FB
:0421E40030000020A7
:04000005080000C52A
:00000001FF
