:020000040800F2
:100000000010002085010008890100088B0100080C
:1000100000000000000000000000000000000000E0
:10002000000000000000000000000000A501000822
:100030000000000000000000A7010008F909000806
:10004000B501000800000000B5010008B501000876
:10005000B5010008DD0F0008ED0F0008FD0F0008D6
:1000600000000000850C0008950C0008AD0C00088D
:10007000B5010008B5010008B50100080000000046
:10008000B50100080000000000000000B5010008F4
:10009000B5010008B5010008B5010008B501000868
:1000A000B5010008B5010008B5010008FD11000800
:1000B000B501000800000000000000000000000082
:1000C0005FF808F173B500F07EFB0022224B234954
:1000D000D3188B4204D22249895804321960F5E7BB
:1000E000204B214A934202D2002204C3F9E700F0D8
:1000F0006EFB684601A900F05BFB1C4B00251E1C33
:100100001B4CE41AA410A54204DAAB00F35898473C
:100110000135F8E7174B00251E1C174CE41AA410F4
:10012000A54204DAAB00F35898470135F8E7009888
:10013000019900F06BFF114B051C1E1C104CE41ABA
:10014000A410002C04DD013CA300F3589847F8E705
:10015000281C00F025FBC046000000209400002071
:100160000015000898000020B0050020E0010008FC
:10017000E0010008E0010008E8010008E8010008CB
:10018000EC01000809480047FEE7042071460842D8
:1001900002D0EFF3098001E0EFF308807146044AD2
:1001A0001047FEE7FEE7FEE770470000C5000008C5
:0601B000A3010008FEE7B8
:1001B8000015000800000020940000200015000829
:1001C800000000000000000098000020B00500209A
:1001D8000000000000000000C50C000869100008BD
:0401E8007910000882
:1001F0000268204B13400360002303604360836068
:10020000C3601D4B984203D11C4A0F2153682DE057
:100210001B4B984203D1194AF021536826E0194B31
:10022000984204D1F021154A090153681EE0164B8B
:10023000984204D1F021114A0902536816E0134B89
:10024000984204D1F0210D4A090353680EE0104B87
:10025000984204D1F021094A0904536806E00D4B85
:10026000984205D1F021054A090553680B435360B4
:100270007047C046FEFF0000080002400000024038
:100280001C0002403000024044000240580002407E
:100290006C00024080000240034B1B681840431E64
:1002A0009841C0B27047C04600000240014B586000
:1002B0007047C04600000240837910B50168002BEA
:1002C00023D0CA43144B1C6814401C605C68224055
:1002D0005A600279D21814682143116002689C6840
:1002E000D1430C409C60DC682140D96041791029E1
:1002F00006D1996811439960D9680A43DA600AE027
:10030000054BCB1819680A4304E0034A03799B188C
:100310001A688A431A6010BD00040140034B5B69F0
:100320001840431E9841C0B27047C04600040140C7
:10033000014B58617047C04600040140F7B50022E8
:100340000B68019301239340019E1E409E422DD1D4
:100350000C79631E012B16D85700BC46032765464F
:10036000AF408368BB4383604B798768AB403B43B6
:1003700083608388B34383808E798788331C93405E
:100380003B439BB2838003235600B340DB43B4401E
:1003900007681F40076007683C430460C468234047
:1003A000C360CB79C468B3402343C3600132102AD1
:1003B000C8D1F7BD008A80B270478161704701855E
:1003C0007047002A01D0816100E001857047072352
:1003D00010B50F240B409B009A409C40131CC90889
:1003E00089004018016AA1430162016A0B4303625C
:1003F00010BD0000827870B50378002A1DD0032458
:1004000099082340DC00FF23104A890089181A1C30
:10041000C025A240AD004E599643427892011A4041
:10042000131CA34033434B511F2302781340012276
:100430009A40131C054A136006E01F2213401E3A1F
:100440009A40131C024AD36770BDC04600E100E029
:1004500004E100E0F8B50C23494D041C686818401D
:1004600000F0DAFE1F1F1F1F1F1F1F1F071F1F1F68
:100470001D00C02368686A688002000F5B02861C4A
:100480001A4201D13F4807E03D4B3F48D96A0F234C
:100490001940013100F0CAFE7043206004E03B4B7C
:1004A00000E0394B0020236021686B680A1C384E3D
:1004B0001B061B0FF35CDA40131C62606A6852056E
:1004C000520FB25CD340A3602A6BD20501D4314AEB
:1004D00006E02B4A5268520401D45A0800E09A08F8
:1004E000E2602A6B520601D42B4A01E080221202FC
:1004F00022612A6BD20602D4234A626100E0616164
:1005000003222F6B1E4E174201D1A36112E0376BFD
:100510001740012F01D1A1610CE0376B1740022F6A
:1005200002D18022120204E0366B3240032A01D14C
:10053000154AA261C0222F6B9202114E174215D0AC
:100540008027336B7F021340BB4201D1E1610EE093
:100550008021336B890213408B4202D180231B021E
:1005600004E0336B1340934201D1074BE3612B6BE3
:100570001B0602D4054B236200E02062F8BDC04692
:100580000010024000093D0000127A00006CDC02FD
:1005900000000020809FD50012800000044B5A69A3
:1005A000002902D01043586101E082435A6170472C
:1005B00000100240044B9A69002902D01043986150
:1005C00001E082439A61704700100240044BDA68F0
:1005D000002902D01043D86001E08243DA607047FE
:1005E00000100240044B1A69002902D01043186120
:1005F00001E082431A61704700100240032310B5E6
:100600000F240B409B0098409C40031C054A89081E
:10061000890089188A68A2438A608A6813438B60BC
:1006200010BDC0460000014008B5194B98420AD1E0
:1006300080200121C001FFF7C9FF80200021C001F7
:10064000FFF7C4FF22E0134B984207D1802001211D
:100650008002FFF7C7FF8020800214E00E4B984213
:1006600007D180200121C002FFF7BCFF8020C0021B
:1006700009E00A4B984209D1802001210003FFF7CD
:10068000B1FF802000030021FFF7ACFF08BDC0468A
:10069000003801400044004000480040004C004049
:1006A0000122F0B50D1C03688BB0934303604268D0
:1006B000204B041C13408A681343436002681E4B9E
:1006C0001A40CB6849680B4329690B431343036005
:1006D00082681A4B13406A691343836001A8FFF7CD
:1006E000B9FE174B079E9C4204D0164B089E9C42B5
:1006F00000D0039E23682F681B0400D57600391CA8
:10070000301C00F093FD391C051C301C00F014FE59
:1007100000237F08B9425B41ED1823681B0404D510
:10072000094B2A07520F1D401543ADB2A5810BB0EE
:10073000F0BDC046FFCFFFFFF3E9FFFFFFFCFFFF67
:100740000038014000440040F0FF0000012203682F
:10075000002901D0134300E0934303607047808C6D
:10076000C005C00D7047012310B58CB2C9B28B40D3
:10077000240A191C022C01D1043002E0032C00D100
:1007800008300368002A02D01943016001E08B435E
:10079000036010BDC0690840411E8841C0B2704767
:1007A00008B500F019F808B50120FFF7F9FF0000BF
:1007B00001230360014B0B607047C046100000200E
:1007C00008B5FFF7F0FF08B500F012F808BD08B54E
:1007D00000F088F808BD0000BFF34F8F024A034BBA
:1007E000DA60BFF34F8FFEE70400FA0500ED00E08A
:1007F0000121344B82B01A680A431A605868324AA1
:1008000002405A601868314A02401A601868304A3B
:1008100002401A6058682F4A02400F205A60DA6A74
:100820008243DA62186B2C4A02401A635A6B8A437D
:100830005A63002280219A60009201921A6849024C
:100840000A431A60802219689202114001910099AE
:10085000013100910199002904D1A0210098C9011A
:100860008842EFD119680A4000D001220192019A12
:10087000012A25D11121194A11605A685A605A6813
:100880005A605968164A0A4088215A605A684903D2
:100890000A4380215A601A6849040A431A60196899
:1008A000084A8901FBD50320516881435160516892
:1008B0000138014351600C2259680A40082AFAD1D4
:1008C00002B07047001002400CB8FF08FFFFF6FEB0
:1008D000FFFFFBFFFFFFC0FFACFEFFFF0020024059
:1008E000FF7FC0FF0C2370B5134D144E6A68134090
:1008F000042B01D0082B02D0114B336013E0C0232E
:100900006C686A68A402240F5B0202341A4201D1A7
:100910000C4806E00F23E96A09481940013100F04C
:1009200085FC444334606B68074A1B061B0FD35C8D
:100930003268DA40326070BD0010024028000020AA
:1009400000127A0000093D00180000200122002357
:10095000044930B50C684D6812196B410A604B6050
:1009600030BDC046A000002038B5154B15491868A9
:1009700000F05CFC144B00241860FA230025802151
:100980009B005843114B124A1860124B09061C6019
:100990005D60136A01381B021B0A0B4313620E4B86
:1009A00098420CD80D494860C020136A00061B020B
:1009B0001B0A0343136200238B6007330B6038BDAF
:1009C0002800002040420F00A80000209C000020CA
:1009D00000ED00E0A0000020FFFFFF0010E000E0BD
:1009E000044B1A685B689942FAD801D19042F7D853
:1009F0007047C046A000002008B5024B1B6898470E
:100A000008BDC0462C000020002343608360C36003
:100A10004B68016003617047002238B50369934257
:100A200018D004688268013B65680361531C8360C9
:100A3000094BAA4201D223689B1819700368826887
:100A40005B689A4201D3002383600C30012100F0DF
:100A500005F80122101C38BDAC00002072B60368F6
:100A6000C918016062B6704770470000F0B5334B9B
:100A700085B09B68041C0293314B1E685F68314B44
:100A80001B680393C31C0120DB7F98406B460190D9
:100A90009D88281CFFF742FC00284CD0281CFFF73B
:100AA00047FCE068FFF786FC258C022D43D96B4696
:100AB0009B881840C01A42424241D3B20193102D84
:100AC00001D1002B37D101232A1C01991A408A42F7
:100AD00001D0002301E0632D01D123842BE001200C
:100AE0000021FA22801979419200002300F030FCA5
:100AF000061C0F1C0298039900F098FB0023021CAF
:100B0000B61A9F41019B002B02D02661676110E05D
:100B10002B1C133B4F2B0CD82369F61A3223B342FC
:100B2000B641A269E36992185B4176421643A66119
:100B3000E3610135258405B0F0BDC04610E000E05A
:100B4000A0000020A800002010B5041C00F060FBED
:100B5000201C10BD10B5041C0C48E160083020605A
:100B60000020E11CA060201D6460CA77C3770022CA
:100B70000023226163610122FF235242A261E361EB
:100B8000029900F026FA201C10BDC0464814000847
:100B9000F0B50026041C0684012089B0011CFFF773
:100BA00009FD9022E368E51CD205934206D1301C72
:100BB000E97FFFF723FD8020800208E0194A934275
:100BC00008D10120E97FFFF719FD8020C002012133
:100BD000FFF7E4FCEE7F01252B1CB34000271E1C11
:100BE00004A99BB2E068019304938D71CD710D71DE
:100BF0004F71FFF7A3FBE068B1B2FFF7DEFB019B8B
:100C000006A8069310230434077143718571FFF71A
:100C100053FBE37F03A8037047708570FFF7EAFB7F
:100C200009B0F0BD0004004837B51D1C0023026068
:100C3000041C83600373437341600120011CFFF7B0
:100C4000ADFC6068FFF7D4FA012301A8057043707A
:100C50008370FFF7CFFB201C3EBD10B5041C00685D
:100C6000FFF71AFB431E9841C3B2A06863730028C4
:100C700004D0002B02D003689B6898472068FFF7D8
:100C800015FB10BD08B50248FFF7E7FF08BDC046D9
:100C9000B000002008B50348FFF7DFFF0248FFF768
:100CA000DCFF08BDC0000020D000002008B50348CC
:100CB000FFF7D3FF0248FFF7D0FF08BDE000002098
:100CC000F000002008B51149022209231048FFF75F
:100CD000ABFF104920220A230F48FFF7A5FF80220F
:100CE0000E4992000A230E48FFF79EFF80220D490D
:100CF00092010B230C48FFF797FF80220B480C4909
:100D000092020B23FFF790FF08BDC0460800024087
:100D1000B00000201C000240C00000203000024053
:100D2000D000002044000240E0000020F00000203D
:100D300058000240031C083337B503608023DB00F2
:100D400043600833C1180833C218083BC25020233F
:100D50004B608623041CDB00C518281CFFF754FEDB
:100D60000F4B2A1CE0180F4900F092F98A23DB0090
:100D7000E0180D4B0D49009301220523FFF7EAFE11
:100D80008F23DB00E018062390210093084BC90550
:100D900001930322022300F099F8201C3EBDC046B7
:100DA000440400000038014008010020000400480D
:100DB00004010020902008B50A1CC0050221FFF79D
:100DC00000FB08BD902008B50A1CC0050121FFF7F3
:100DD000F8FA08BD37B5E121134B051C4902C018CC
:100DE00000F0E8F98A23DB00E818FFF7D1FE8F2333
:100DF000DB00E81800F086F80323002400936B461C
:100E000090206A469C71DC7101236946C00513710C
:100E10005471FFF793FA281C211CFFF7CBFF281C05
:100E2000211CFFF7CFFF37BD4404000070470000CE
:100E30000122F0B51F4B85B09B68041C02931E4B2A
:100E40001E685F681D4B1B680393437F9A406B4687
:100E500001929D88281CFFF761FA002828D0012004
:100E60000021FA22801979419200002300F070FAE3
:100E7000061C0F1C0298039900F0D8F90023021CED
:100E8000B61A9F416B469B88281C0193FFF750FAC6
:100E9000A069FFF78FFA019B1840984202D1A66023
:100EA000E76005E0A268E368134301D0B61A666004
:100EB00005B0F0BD10E000E0A0000020A800002078
:100EC00010B5041C00F0A4F9201C10BD38B5041C9A
:100ED00004A805780A48227708302060002063774C
:100EE0006061002200236060201CA161A57724615D
:100EF000A260E3601030059900F06BF8201C38BD4B
:100F000060140008F0B5051C012089B0011CFFF732
:100F100051FB9022AB69D205934207D18020012179
:100F20008002FFF73BFB697F002009E0224A9342E1
:100F300008D180200121C002FFF730FB0120697F2A
:100F4000FFF75CFB01232F7F0122BB401F1C6B7F3F
:100F500000269A40BBB20493012304ACA869211C6B
:100F600001922371A671E6716671FFF7E7F9B9B2D4
:100F7000A869FFF724FA6B469F880123A371012318
:100F8000211CA86963710497E6712671FFF7D6F9F1
:100F9000102306A843710F3B067183710697FFF774
:100FA0008BF9062303A80370053B46708370FFF797
:100FB00021FA09B0F0BDC0460004004810B5041C79
:100FC000002C05D0206803689B6898476468F7E7A1
:100FD00010BD0B68436008607047000008B5024B05
:100FE0001868FFF7EBFF08BD0801002008B5024BA9
:100FF0001868FFF7E3FF08BD0401002008B5024BA5
:101000001868FFF7DBFF08BD00010020F7B50024DA
:10101000FFF7AAFC1248FFF7DDFE124BFA221E680A
:101020005F680023251C9200B6185F410C4B0193AA
:10103000301C391CFFF7D4FC211C0198FFF7C2FEBD
:101040000123690819400198FFF7B4FE00236422C8
:10105000B6185F410123013401351C40E8E7C04662
:1010600010010020A000002008B50248FFF762FE32
:1010700008BDC0461001002008B50348034BC01846
:1010800000F022F808BDC046100100204404000012
:1010900008B500230372074B01604260994205D0F6
:1010A00005483921054A064BFFF78AFB054B1860B6
:1010B00008BDC046003801409B140008CB1400084E
:1010C000AD140008A805002010B50021041C00681C
:1010D000FFF73CFB034B1A68944201D100221A60CF
:1010E000201C10BDA8050020F0B52D4B026887B06C
:1010F000061C01919A424DD180200121C001FFF7C9
:1011000059FA802001218002FFF748FA1B2302AA26
:101110001371902080230125002704ACDB00211CE3
:10112000C0050493A771E57127716771FFF706F990
:10113000802390209B000493FF3BFF3B211CC005B4
:101140002371A771E771FFF7F9F890202A1CC005F9
:101150000921FFF73CF990202A1C0A21C005FFF75E
:1011600036F93068FFF760FA01993068FFF798FAAE
:10117000032302AA03A853719571FFF73BF9306866
:101180002A1C0849FFF7EFFA3068291CFFF7DEFA3E
:1011900007B0F0BD04488921044A054BFFF710FB56
:1011A00000380140050105009B1400087414000874
:1011B000AD1400087FB500230C220091694601930D
:1011C0000293039304920593FFF78EFF07B000BDCF
:1011D00010B52021041C0068FFF7DCFA00280BD0B2
:1011E0002068FFF7BCFAC1B26068FFF715FC012365
:1011F0005840237A1843207210BD000008B5034BF5
:101200001868002801D0FFF7E3FF08BDA8050020FB
:1012100008B500F0C7F808BD02B471464908490096
:10122000095C49008E4402BC7047C0460022430856
:101230008B4274D303098B425FD3030A8B4244D39E
:10124000030B8B4228D3030C8B420DD3FF220902E0
:1012500012BA030C8B4202D31212090265D0030B9F
:101260008B4219D300E0090AC30B8B4201D3CB0395
:10127000C01A5241830B8B4201D38B03C01A5241D7
:10128000430B8B4201D34B03C01A5241030B8B42D9
:1012900001D30B03C01A5241C30A8B4201D3CB02C4
:1012A000C01A5241830A8B4201D38B02C01A5241A9
:1012B000430A8B4201D34B02C01A5241030A8B42AC
:1012C00001D30B02C01A5241CDD2C3098B4201D3C4
:1012D000CB01C01A524183098B4201D38B01C01A42
:1012E000524143098B4201D34B01C01A52410309B9
:1012F0008B4201D30B01C01A5241C3088B4201D368
:10130000CB00C01A524183088B4201D38B00C01A14
:10131000524143088B4201D34B00C01A5241411A3B
:1013200000D20146524110467047FFE701B5002048
:1013300000F00CF802BDC0460029F7D003B5FFF756
:1013400075FF0EBC4243891A1847C0467047C04615
:10135000F0B54F46464605042D0C2C1CC0B41704AE
:10136000160C3F0C9946030C7C4375435F43734353
:101370007D19260CAD199C46AF4203D980235B0230
:101380009846C4444B465143434324042E0C240C3A
:101390002D0466442C1959188919201C0CBC904640
:1013A0009946F0BD08B5034B011C186800F004F81D
:1013B00008BDC0469000002030B500293ED0043959
:1013C0000B68002B00DAC9181D4A1368141C002B87
:1013D00002D14B60116031E099420DD208680A18C1
:1013E0009A4203D11368C3180B6053684B602160A5
:1013F00024E08A4203D8131C5A68002AF9D11D68D8
:101400005C198C420BD10968691858181960904210
:1014100014D110685268091819605A600EE08C42A5
:1014200002D90C23036009E008680C18944203D128
:1014300014685268001908604A60596030BDC0469F
:10144000AC050020000000000000000000000000CB
:10145000690A0008490B00086D0A00080000000036
:1014600000000000000000002D0E0008C10E000862
:10147000310E0008766F69642053657269616C3AB9
:101480003A73657475702855534152545F496E69BB
:1014900074547970654465662A29002E2E2F737264
:1014A000632F73657269616C2E637070002122690D
:1014B0006E76616C69642055534152542073656C9B
:1014C000656374696F6E22000D0A0053657269616D
:1014D0006C3A3A53657269616C2855534152545FB6
:1014E000547970654465662A2C20626F756E646558
:0D14F000645F6275666665722A290043001C
:1015000000000000010203040102030406070809A9
:101510009800002000000000000000000000000013
:101520000102030406070809006CDC024D090008EB
:1015300000000000000000000000000000000000AB
:10154000000000000000000000000000000000009B
:10155000FB14000800000000000000000000000074
:10156000000000000000000000000000000000007B
:10157000000000000000000000000000000000006B
:10158000000000000000000000000000000000005B
:041590003000002007
:04000005080000C52A
:00000001FF
