:020000040800F2
:1000000000100020DD010008E5010008E9010008FA
:1000100000000000000000000000000000000000E0
:1000200000000000000000000000000005020008C1
:10003000000000000000000009020008ED160008A2
:100040001502000800000000150200081502000853
:1000500015020008092A0008252A0008412A00087C
:1000600000000000BD1B0008CD1B0008E51B0008B8
:100070001502000815020008150200080000000023
:100080001502000800000000000000001502000832
:1000900015020008150200081502000815020008E4
:1000A000150200081502000815020008F12E0008CC
:1000B0001502000800000000000000000000000021
:1000C0005FF808F130B583B001F0FEF8314B324AE9
:1000D0001360324A1360324B324A03E011681960F0
:1000E0000433043230498B42F8D32B4B1A682F4B20
:1000F0009A4204D1294B1A682D4B9A4200D0FEE750
:10010000244B2C4A13602C4A13602C4B02E0002233
:100110001A6004332A4A9342F9D3264B1B68002BFA
:1001200003D1254B1B68002B00D0FEE701F0D0F86F
:1001300001A8694601F0B8F8224C234B1C1BA410FF
:10014000002504E0AA001F4BD35898470135AC4264
:10015000F8DC1E4C1E4B1C1BA410002504E0AA005A
:100160001A4BD35898470135AC42F8DC01980099F6
:1001700002F086FD051C174C174B1C1BA41004E055
:10018000013CA200134BD3589847002CF8DC281CE4
:1001900001F084F8BABADECA000000209C000020FA
:1001A00000000020903E0008A00000207856341285
:1001B00032547698A0000020700B0020A000002090
:1001C000740B0020400200084002000840020008B2
:1001D00048020008480200084C02000808B5FFF772
:1001E00071FFC04600BEFEE704207146084202D0FF
:1001F000EFF3098001E0EFF308807146044A1047ED
:1002000000BEFEE700BEFEE700BEFEE7704700004E
:080210000102000800BEFEE738
:10021800903E000800000020A0000020903E00084A
:100228000000000000000000A0000020740B002067
:100238000000000000000000FD1B0008D92C000889
:04024800E92C000895
:1002500010B5041E324B9C4215D0324B984212D03E
:10026000314B98420FD0314B98420CD0304B9842D2
:1002700009D0304B984206D02F4B984203D02F48DC
:10028000842101F01DF822682D4B134023600023C8
:1002900023606360A360E360214B9C4205D1294A3F
:1002A00051680F230B43536039E01E4B9C4205D12C
:1002B000244A5168F0230B43536030E01A4B9C42B0
:1002C00006D1204A5368F02109010B43536026E010
:1002D000164B9C4206D11B4A5368F02109020B437E
:1002E00053601CE0124B9C4206D1164A5368F02121
:1002F00009030B43536012E00E4B9C4206D1114A96
:100300005368F02109040B43536008E00A4B9C42F8
:1003100005D10C4A5368F02109050B43536010BD09
:10032000080002401C00024030000240440002402D
:10033000580002406C00024080000240D0370008A4
:10034000FEFF00000000024010B5041C431E012BFC
:1003500060D904285ED008285CD010285AD0202804
:1003600058D0402856D0802854D080235B00984233
:1003700050D00133FF3398424CD08023DB009842A9
:1003800048D080231B01984244D080235B019842CF
:1003900040D080239B0198423CD08023DB019842CF
:1003A00038D080231B02984234D080235B029842CD
:1003B00030D080239B0298422CD08023DB029842CD
:1003C00028D080231B03984224D080235B039842CB
:1003D00020D080239B0398421CD08023DB039842CB
:1003E00018D080231B04984214D080235B049842C9
:1003F00010D080239B0498420CD08023DB049842C9
:1004000008D080231B05984204D00648802189002B
:1004100000F056FF044B1B681C4201D0012000E095
:10042000002010BDD03700080000024010B5041CA9
:10043000030F01D1002804D103488F21890000F067
:100440003FFF024B5C6010BDD03700080000024047
:1004500010B5041C0379002B05D0042B03D02D48C4
:10046000852100F02DFF6379082B07D00C2B05D0D8
:10047000102B03D02748862100F022FF2368E222B8
:10048000D205134201D1002B03D12248872100F06D
:1004900017FFA379012B03D91E48882100F010FF14
:1004A000A379002B2CD01C4B1A6821688A431A6050
:1004B0005A6821688A435A6022799C4662441168CE
:1004C0002068014311609A6821688A439A60DA685B
:1004D00021688A43DA606379102B09D163469A68F0
:1004E00021680A439A60D96822680A43DA600FE0FB
:1004F000094A94466344196822680A431A6007E06F
:100500002379054A944663441A6821688A431A602D
:1005100010BDC046003800080004014010B5041C9E
:10052000431E012B5FD904285DD008285BD010281A
:1005300059D0202857D0402855D0802853D0802328
:100540005B0098424FD00133FF3398424BD0802359
:10055000DB00984247D080231B01984243D0802380
:100560005B0198423FD080239B0198423BD080237F
:10057000DB01984237D080231B02984233D080237E
:100580005B0298422FD080239B0298422BD080237D
:10059000DB02984227D080231B03984223D080237C
:1005A0005B0398421FD080239B0398421BD080237B
:1005B000DB03984217D080231B04984213D080237A
:1005C0009B0498420FD08023DB0498420BD08023F9
:1005D0001B05984207D080231B06984203D006488B
:1005E000E92100F06DFE054B5B691C4201D0012042
:1005F00000E0002010BDC0460038000800040140A3
:1006000010B5041CE223DB05184201D1002803D1F8
:100610000348FF2100F054FE024B5C6110BDC04650
:100620000038000800040140F8B5051C0E1C90239A
:10063000DB05984212D03D4B98420FD03C4B98427C
:100640000CD03C4B984209D03B4B984206D03B4BD8
:10065000984203D03A48B42100F032FE3368002BB0
:1006600003D13748B52100F02BFE3379032B03D992
:100670003348B62100F024FEF379022B03D9304829
:10068000B72100F01DFE00244CE00123A340326896
:100690001A409A4245D13379013B012B28D873790E
:1006A000012B05D9032B03D02548C72100F008FEF4
:1006B000AA686000032181408A43AA60A968727910
:1006C000131C83400B43AB60B379012B03D91C4847
:1006D000CE2100F0F5FDAB882204120C01219140DF
:1006E0008B43AB80A888B17991408BB20343AB8038
:1006F0002B6867000320021CBA4093432B602B68D1
:1007000031790A1CBA401A432A60EB682204D20BE2
:1007100090408343EB60E968F279131CBB400B43C4
:10072000EB6001340F2CB0D9F8BDC046000400487E
:1007300000080048000C0048001000480014004861
:100740003438000810B5041C9023DB05984213D000
:100750000B4B984210D00B4B98420DD00A4B98424D
:100760000AD00A4B984207D0094B984204D0094856
:10077000A721490000F0A4FD208A80B210BDC04628
:100780000004004800080048000C00480010004821
:10079000001400483438000838B5041C0D1C9023A0
:1007A000DB05984213D00E4B984210D00D4B984267
:1007B0000DD00D4B98420AD00C4B984207D00C4BF1
:1007C000984204D00B48C821490000F079FD002D63
:1007D00004D108489221FF3100F072FDA56138BDB7
:1007E0000004004800080048000C004800100048C1
:1007F000001400483438000838B5041C0D1C902340
:10080000DB05984213D00E4B984210D00D4B984206
:100810000DD00D4B98420AD00C4B984207D00C4B90
:10082000984204D00B48A621FF3100F049FD002D6D
:1008300004D10848D321490000F042FD258538BD88
:100840000004004800080048000C00480010004860
:10085000001400483438000870B5041C0D1C161C28
:100860009023DB05984213D02A4B984210D02A4B94
:1008700098420DD0294B98420AD0294B984207D074
:10088000284B984204D02848DF21490000F018FD89
:100890006B1E9BB2012B30D9042D2ED0082D2CD0ED
:1008A000102D2AD0202D28D0402D26D0802D24D0C8
:1008B00080235B009D4220D00133FF339D421CD03A
:1008C0008023DB009D4218D080231B019D4214D061
:1008D00080235B019D4210D080239B019D420CD060
:1008E0008023DB019D4208D080231B029D4204D05F
:1008F0000D48C021FF3100F0E3FC012E04D90A4865
:10090000E021490000F0DCFC002E01D0A56100E0F0
:10091000258570BD0004004800080048000C004810
:1009200000100048001400483438000870B5051C59
:100930000C1C161C9023DB05984212D0174B9842D2
:100940000FD0174B98420CD0164B984209D0164B3B
:10095000984206D0154B984203D01548154900F02F
:10096000AFFC0F2C03D91248134900F0A9FC072E45
:1009700003D90F48114900F0A3FC072323409B0033
:100980009E40E108083189004A590F20984082436F
:100990004A514B591E434E5170BDC0460004004899
:1009A00000080048000C00480010004800140048EF
:1009B000343800080D0200000E0200000F02000093
:1009C00070B5041C8378012B03D91948522100F01B
:1009D00077FC6378032B03D91548532100F070FC92
:1009E000A378002B1AD021788808124EC0308000DE
:1009F000855903231940C900FC331A1C8A409543CA
:100A0000627892011A40131C8B402B438351237848
:100A10001F2213401E3A9A40326008E023781F22BA
:100A200013401E3A9A40131C802202498B5070BD1D
:100A30006838000800E100E070B5041C5D4B5B689D
:100A40000C221340042B0CD002D8002B05D028E038
:100A5000082B0AD00C2B20D023E0574B036000203A
:100A600022E0554B036000201EE0524B5868800284
:100A70005A68000F851CC0235B021A4202D14F48FE
:100A8000684308E04B4BDB6A0F21194001314A48AB
:100A900002F03CFA6843206006E0494B0360002006
:100AA00002E0454B2360002042494B681B061B0FA8
:100AB000444DEB5CDBB22668321CDA4062604B6866
:100AC0005B055B0FEB5CDBB2DA40131CA2600A6BC8
:100AD000D20502D43C4AE26008E0364A5268520429
:100AE00002D45A08E26001E09A08E260314A126BCF
:100AF000520602D4354A226102E0802212022261AB
:100B00002C4A126BD20602D42B4A626100E0666165
:100B1000284A126B920701D1A36119E0254A126B92
:100B200003210A40012A01D1A66111E0214A126B7A
:100B300003210A40022A03D180221202A26107E0A7
:100B40001C4A126B03210A40032A01D11A4AA261EE
:100B5000184A116BC0229202114201D1E36120E0D8
:100B6000144B1A6BC0239B02134080225202934203
:100B700001D1E66115E00F4B1A6BC0239B021340B5
:100B800080229202934203D180231B02E36108E09A
:100B9000084B1B6BC02292021340934201D1064BBB
:100BA000E361044B1B6B1B0602D4054B236200E080
:100BB000206270BD0010024000127A0000093D0062
:100BC000006CDC0204000020809FD5001280000031
:100BD00038B5041C0D1C0D4B184201D1002803D15F
:100BE0000B480C4900F06CFB012D03D908480A4959
:100BF00000F066FB002D04D0084B5A6914435C6179
:100C000003E0064A5369A343536138BDAAFF81FE3E
:100C10009C3800083605000037050000001002402F
:100C200038B5041C0D1C0D4B184201D1002803D10E
:100C30000B480C4900F044FB012D03D908480A4930
:100C400000F03EFB002D04D0084B9A6914439C61D0
:100C500003E0064A9369A343936138BDFEA5B8FF3C
:100C60009C3800085A0500005B0500000010024097
:100C700038B5041C0D1C0E4B184201D1002803D1BD
:100C80000C480D4900F01CFB012D04D90948B9217D
:100C9000C90000F015FB002D04D0084BDA6814439E
:100CA000DC6003E0054AD368A343D36038BDC04687
:100CB000FEA5B8FF9C380008C705000000100240E0
:100CC00038B5041C0D1C0D4B184201D1002803D16E
:100CD0000B480C4900F0F4FA012D03D908480A49E1
:100CE00000F0EEFA002D04D0084B1A6914431C6181
:100CF00003E0064A1369A343136138BDCCB61185DE
:100D00009C380008F1050000F205000000100240C8
:100D100070B5051C0C1C052803D90D48EA2100F00C
:100D2000CFFA0F2C03D90A48EB2100F0C9FA0323AC
:100D300023409B000F269E40A108064A02318900ED
:100D40008858B043885088589D4005438D5070BDE9
:100D5000CC3800080000014010B5041E234B9C4213
:100D60000CD0234B984209D0224B984206D0224BFC
:100D7000984203D02148B12100F0A2FA1B4B9C42BB
:100D80000AD18024E401201C0121FFF771FF201CFF
:100D90000021FFF76DFF28E0154B9C420AD180240B
:100DA000A402201C0121FFF78BFF201C0021FFF76C
:100DB00087FF1AE00F4B9C420AD18024E402201CDA
:100DC0000121FFF77DFF201C0021FFF779FF0CE0D8
:100DD000094B9C4209D180242403201C0121FFF7E8
:100DE0006FFF201C0021FFF76BFF10BD0038014092
:100DF0000044004000480040004C0040003900081A
:100E0000F0B58DB0041C0D1C5B4B98420CD05B4BB5
:100E1000984209D05A4B984206D05A4B984203D078
:100E20005948DC2100F04CFA2B68013B574A9342A9
:100E300003D95548DD2100F043FA6B68002B0AD036
:100E400080225201934206D0514A934203D04E4829
:100E5000DE2100F035FAAB68002B0BD08022920126
:100E6000934207D0C0229201934203D04648DF212B
:100E700000F026FAEB68002B0BD08022D2009342C0
:100E800007D0C022D200934203D03F48E02100F0B7
:100E900017FA2B690C22191C914301D1002B03D1A5
:100EA0003948E12100F00CFA6B69002B0FD0802249
:100EB000520093420BD00132FF32934207D00132ED
:100EC000FF32934203D03048E22100F0F9F9236861
:100ED00001229343236062682E4B1340AA68134398
:100EE000636022682C4B1A406B68E9680B432969E0
:100EF0000B4313432360A268284B13406A691343D2
:100F0000A36003A8FFF798FD1B4B9C4201D1099EEB
:100F100005E01A4B9C4201D10A9E00E0059E236821
:100F20001B040CD576002B68301C0193191C01F0B2
:100F3000EDFF071C301C019902F06EF80AE02B68E7
:100F4000301C0193191C01F0E1FF071C301C0199B2
:100F500002F062F82B685B088B4200D801372368E7
:100F60001B0405D53B075B0F0D4A3A401A43171C7B
:100F7000BBB2A3810DB0F0BD003801400044004079
:100F800000480040004C0040003900087F8D5B00A5
:100F900000100010FFCFFFFFF3E9FFFFFFFCFFFF92
:100FA000F0FF000038B5041C0D1C124B98420DD008
:100FB000114B98420AD0114B984207D0104B9842DF
:100FC00004D01048C821490000F07AF9012D04D955
:100FD0000C489221FF3100F073F9002D04D02268F3
:100FE00001231343236003E023680122934323601A
:100FF00038BDC04600380140004400400048004071
:10100000004C00400039000838B5051C0C1C0D4B85
:1010100098420CD00C4B984209D00C4B984206D009
:101020000B4B984203D00B480B4900F049F90B4B8E
:101030009C4203D907480A4900F042F9E405E40D4F
:101040002C8538BD00380140004400400048004075
:10105000004C00400039000895030000FF0100002B
:101060009603000010B5041E094B9C420CD0094B9E
:10107000984209D0084B984206D0084B984203D0BA
:101080000748084900F01CF9A08CC005C00D10BD30
:10109000003801400044004000480040004C00403F
:1010A00000390008A603000070B5051C0C1C161CB6
:1010B0002C4B98420CD02C4B984209D02B4B984289
:1010C00006D02B4B984203D02A482B4900F0F8F861
:1010D00084235B009C4225D0284B9C4222D0284B85
:1010E0009C421FD0274B9C421CD0274B9C4219D0BE
:1010F000264B9C4216D0264B9C4213D0C0239B000B
:101100009C420FD0234B9C420CD0234B9C4209D0D5
:10111000224B9C4206D0224B9C4203D015482149C9
:1011200000F0CEF8012E03D912481F4900F0C8F88C
:10113000291CA2B2120AFF231C40FE3BA3401C1C28
:10114000022A01D1291D03E0032A01D1291C0831FB
:10115000002E03D00B681C430C6002E00B68A34315
:101160000B6070BD00380140004400400048004062
:10117000004C004000390008050700000701070087
:10118000060106000501050004010400060208002E
:101190000A0309001A010B001B010C000E011100CB
:1011A00016031400060700000707000038B5051CE9
:1011B0000C1C314B98420CD0304B984209D0304B2C
:1011C000984206D02F4B984203D02F482F4900F069
:1011D00077F8012C49D0802C47D0402C45D0202CCA
:1011E00043D0102C41D080235B009C423DD0013382
:1011F000FF339C4239D0082C37D0042C35D0022C38
:1012000033D08023DB009C422FD080231B019C42E3
:101210002BD080235B019C4227D08023DB019C42A2
:1012200023D080231B029C421FD080235B029C4260
:101230001BD080239B029C4217D08023DB029C4260
:1012400013D080231B039C420FD080235B039C425E
:101250000BD080239B039C4207D08023DB039C425E
:1012600003D009480A4900F02BF8EB691C4201D071
:10127000012000E0002038BD00380140004400405B
:1012800000480040004C004000390008930700006F
:101290009407000008B500F003F8C046FEE7C0461A
:1012A00008B50120FFF7FAFF01230360014B0B6033
:1012B0007047C0461400002008B5FFF7F1FFC04694
:1012C00008B5FFF7EDFFC04608B500F023F908BDEB
:1012D00008B500F001F808BD10B51E4B5B680C2284
:1012E0001340042B07D0082B09D0002B22D11A4A17
:1012F0001A4B1A6021E0184A184B1A601DE0154B72
:101300005C68A4025A68240F0234C0235B021A42AC
:1013100004D113484443114B1C600EE00D4BDB6AB3
:101320000F21194001310C4801F0F0FD44430B4BF3
:101330001C6002E0084A094B1A60064B5B681B06FA
:101340001B0F084AD35CDBB2044A1168D940116014
:1013500010BDC0460010024000127A002C00002090
:1013600000093D001C00002082B00023019300937F
:10137000002862D0624A1368802040020343136051
:101380005F4B1A6880239B0213400093019B01333B
:101390000193009B002B04D1019AA023DB019A4208
:1013A000EED1574B1B689B0302D50123009301E04C
:1013B00000230093009B012B00D09FE01122514B92
:1013C0001A604F4B5A685A605A685A60002921D0F7
:1013D00059684D4A0A405A605A68882149030A43AD
:1013E0005A601A68802149040A431A60444B1B68FA
:1013F0009B01FBD5424B5A6803218A435A605968C6
:1014000002220A435A603E4B5B680C221340082BB1
:10141000F9D173E03A494B6803229343023A1343EC
:101420004B60374B5B680C221340042BF9D1344AD4
:101430001168364B0B40136060E0314A106801239D
:10144000034313602E4B1B68022213400093019B41
:1014500001330193009B002B04D1019AA023DB01EF
:101460009A42EFD1264B1B689B0702D501230093BC
:1014700001E000230093009B012B3FD11122214B5F
:101480001A601F4B5A685A605A685A60002921D066
:1014900059681D4A0A405A605A68A02189030A43C4
:1014A0005A601A68802149040A431A60144B1B6869
:1014B0009B01FBD5124B5A6803218A435A60596835
:1014C00002220A435A600E4B5B680C221340082B21
:1014D000F9D10EE00A4A536803218B435360084B4D
:1014E0005B680C221A42FAD1054A1168074B0B407F
:1014F0001360034A1168064B0B40136002B070473B
:101500000010024000200240FF7FC0FFFFFFFFFEEF
:10151000FFFFFEFF08B5134B1A6801210A431A604A
:101520005868114A02405A601868104A02401A600E
:1015300018680F4A02401A6058680E4A02405A6002
:10154000DA6A0F208243DA62186B0B4A02401A6390
:101550005A6B8A435A6300229A600020FFF704FF07
:1015600008BDC046001002400CB8FF08FFFFF6FEA1
:10157000FFFFFBFFFFFFC0FFACFEFFFF30B50549DB
:101580000C684D680122002312196B410A604B6000
:1015900030BDC046B000002008B580B289B2FFF768
:1015A000E3FEFFF799FE144B1868144901F0AEFCF6
:1015B000134B1860FA239B005843124A10601249DB
:1015C0000B6A1B021B0A8020000603430B62136890
:1015D000013B0E4A93420CD80D4A53600B6A1B0222
:1015E0001B0AC020000603430B62002393600733ED
:1015F0001360014B186808BD2C00002040420F000A
:10160000B8000020A800002000ED00E0FFFFFF0070
:1016100010E000E030B50025084B1A685B68291C13
:101620008018594100E030BF044B1A685B6899424A
:10163000F9D801D19042F6D830BDC046B0000020A4
:1016400000E030BF044B1A685B689942F9D801D1B9
:101650009042F6D87047C046B0000020F8B5061C8E
:1016600072B61E4B98681E4B1F68391C01F04EFC69
:101670001C4B1C685D6862B6864210D9361A701E13
:10168000FA21890001F0D2FC013017494143711859
:1016900049427943021C0023A4185D4101E0811BEB
:1016A0007943104B1A685B689D420FD801D1944270
:1016B0000CD80A4B9B6899420AD20A4B1A685B689D
:1016C000A24201D1AB4205D0002304E0012302E095
:1016D000002300E00123002BE3D1F8BD10E000E07F
:1016E000B8000020B000002018FCFFFF08B5024B36
:1016F0001B68984708BDC0463000002001600023E9
:1017000043608360C3604B680361704710B5036931
:10171000002B1AD0013B0361026883685C1C846063
:101720005468A34202D21268D31800E0084B197023
:1017300003685B6882689A4201D3002383600C309F
:10174000012100F067F8012000E0002010BDC04634
:10175000BC00002070B5041C0E1C002525E0201CD8
:101760000C30012100F05CF8691C73689D4203D2C3
:1017700033689C46654400E00E4D22686368581C3F
:1017800060605068834202D21268D31800E0094BAF
:101790001B782B7023685B6862689A4201D3002330
:1017A00063602369013323610D1C73689D42D6D3A6
:1017B00070BDC046BC00002010B54C68944203D8F0
:1017C00000230360436008E00C68A41804604968C3
:1017D0008A1A9A4200D91A1C426010BD70B5456839
:1017E0004E68B54200D9351C00230DE00268D45C78
:1017F000B34202D20A68D21800E0054A1278944235
:1018000001D0181C03E00133AB42EFD3281C70BD9C
:10181000BC00002072B603685918016062B67047B8
:1018200000E0C04603688B42FBD372B60368591AC6
:10183000016062B67047C046014B03607047C04606
:1018400040390008F0B5474680B4071C344B9E6809
:10185000344B186859680122002380185941FA2234
:101860009200002301F018FD041C0D1C301C2E4BAF
:10187000196801F04BFB021C0023A41A9D4122337E
:10188000FA5C213B93409AB290461B041E0C301C1C
:10189000FEF744FE00283FD0301CFEF7B1FEF8688A
:1018A000FEF750FF43461840C31A5A425A41D3B27A
:1018B000398C022930D9102901D1002B2CD10122D9
:1018C0000A409A4202D000233B8425E0632902D1DA
:1018D00001233B8420E0002B02D03C617D6119E0B4
:1018E0000B1C133B9BB24F2B14D83B69E41ABA690B
:1018F000FB69151C1E1CAD185E41322C02D9012457
:10190000002001E000240020221C2A43331C034352
:10191000BA61FB610131398404BC9046F0BDC04618
:1019200010E000E0B0000020B800002010B5041C5A
:10193000024B036001F0E6FA201C10BD403900089C
:1019400010B5041C0C480830206064600020A060C2
:10195000E160222162542322A35400220023226149
:10196000636101225242FF23A261E361201D0299BB
:1019700001F046F8201C10BD50390008F0B547466C
:1019800080B486B0051C0023038401200121FFF7E9
:1019900047F9EB689022D20593420AD12223E95CF1
:1019A0000020FFF7B5F9802080020121FFF710F930
:1019B0000CE01C4A934209D12223E95C0120FFF785
:1019C000A7F98020C0020121FFF702F92223EC5C75
:1019D0000126331CA3401C1C9BB298462404240CF3
:1019E00002A902948E71CE710E7100274F71E868C2
:1019F000FEF71AFEE8684146FEF7CEFE04A80494FE
:101A00000771102343718671FEF722FD01A823237D
:101A1000EB5C037047708670FEF7D2FF06B004BC23
:101A20009046F0BD0004004838B5041C0122524223
:101A3000FF238261C361022303842033C55C213B01
:101A4000AB409DB2C068291CFEF7D6FE0220FFF70E
:101A5000E1FDE068291CFEF79FFE1023238438BDBA
:101A600030B5038C012B16D000231DE0D4002021BB
:101A70004942611803D4C469CC40211C07E02025E9
:101A80002D1BC169A9400D1C8169E14029435B18E8
:101A9000DBB2013201E001220023042AE6DD027EEE
:101AA0009B1A59425941CBB200220284181C30BD06
:101AB000C3691A0683691B0A134398B21A0403D533
:101AC0005B045B0C5B4298B200B27047C3691B02B7
:101AD000C07E18430005000D7047C04630B583B086
:101AE000041C1D1C02604160002383600373437368
:101AF00001200121FFF76CF86068FEF7A9FB01A83F
:101B00000123437083700570FEF75AFF201C03B059
:101B100030BDC04608B5012823D1124B994220D1CF
:101B20001148124902220923FFF7D8FF1048114932
:101B300020220A23FFF7D2FF0F481049802292008B
:101B40000A23FFF7CBFF0E480E49802292010B2398
:101B5000FFF7C4FF0C480D49802292020B23FFF7C8
:101B6000BDFF08BDFFFF0000C000002008000240CC
:101B7000D00000201C000240E000002030000240A5
:101B8000F000002044000240000100205800024004
:101B900010B5041C0068FEF7D7FB431E9841C3B282
:101BA0006373A068002804D0002B02D003689B68F0
:101BB00098472068FEF73AFC10BDC04608B50248B9
:101BC000FFF7E6FF08BDC046C000002008B5034887
:101BD000FFF7DEFF0248FFF7DBFF08BDD000002063
:101BE000E000002008B50348FFF7D2FF0248FFF7E6
:101BF000CFFF08BDF00000200001002008B5012043
:101C00000149FFF787FF08BDFFFF000008B5232843
:101C100005D907482121074A074BFFF74DFB092843
:101C200001D8302300E03723181840B208BDC04661
:101C30008C3A0008A4390008A03A000808B501F061
:101C4000BBFD40B25A2809DC402801DD37380DE0E1
:101C5000392806DC2F2807DD303807E00120404214
:101C600004E00120404201E00120404208BDC0469E
:101C7000F0B55F4656464D464446F0B483B0061C68
:101C80000F1C111C01920CAA127852B293460D9DA2
:101C90000A1C023A222A05D92A483B212A4A2B4B00
:101CA000FFF70AFB012B05D826483C21264A284B82
:101CB000FFF702FB002D05D122483D21224A254B8A
:101CC000FFF7FAFAEA1800211170002F09DA011C57
:101CD0003A1C00274E4297412D222A702C3A9146F9
:101CE00001E000229146013B98461C1C15E02B198F
:101CF0009A46301C391C019A002301F089FA101C05
:101D0000FFF784FF53461870013C301C391C019AC0
:101D1000002301F07DFA061C0F1C4C4508DB331C28
:101D20003B43E4D14445E2DA02E05B462B55013CFB
:101D30004C45FADA281C03B03CBC90469946A246B2
:101D4000AB46F0BD8C3A0008C0390008A83A00083C
:101D5000C03A0008CC3A0008F0B55F4656464D46FA
:101D6000E0B482B0051C0E1C111C01920AAA127864
:101D700052B292460B9F0A1C023A222A05D92348E6
:101D80005421234A234BFFF797FA002B05D11F4814
:101D900055211F4A204BFFF78FFA002F05D11B4812
:101DA00056211B4A1D4BFFF787FAFA1800211170C4
:101DB000013B99461C1C15E03B199B46281C311C15
:101DC000019A002301F048FA101CFFF71FFF5B4641
:101DD0001870013C281C311C019A002301F03CFAC8
:101DE000051C0E1C002C08DB2A1C3243E4D14C4598
:101DF000E2DA02E053463B55013C002CFADA381C8B
:101E000002B01CBC91469A46A346F0BD8C3A00082D
:101E100064390008A83A0008D83A0008CC3A00080B
:101E2000F0B55F4656464D464446F0B483B0171CA5
:101E30001E1C0C9D0D9C0EAB1B785BB29B46002CB0
:101E400002D0E31CAB4209D9002C01D1012D05D8E9
:101E50002C4867212C4A2D4BFFF72EFA0F9B002BA5
:101E600005D128486821284A294BFFF725FACB0FCE
:101E70009A4600D040428046391C01F047F881461E
:101E80000023012201E072430133A342FBD3484601
:101E900078434346181A0021002301F0FDF93A1C4B
:101EA000002301F0D9F9071C002C01D02D1B013DA6
:101EB0005346002B02D04B46584200E048465B4652
:101EC00000930F9B01930021321C2B1CFFF7D0FEC7
:101ED000002C0ED02E230F9A53550135944665449D
:101EE000302300930195381C0021321C231CFFF77E
:101EF00033FF0F9803B03CBC90469946A246AB46D0
:101F0000F0BDC0468C3A0008003A0008E43A0008E8
:101F1000CC3A0008F0B55F465646C0B483B0071C03
:101F20008B4624293AD92648BC21264A264BFFF75E
:101F3000C3F95246002A0CD19E4202D23B689B193B
:101F400000E0224B187801F0D5FB002803D00123D4
:101F500002E0002300E00023002B1DD17B689E429D
:101F600002D23B689B1900E0184B00201856FFF77F
:101F700065FE824600281BDB584519D258460021D1
:101F8000009A019B01F088F95446E5170019694150
:101F90000090019101239A46013606E000260023B5
:101FA0009A4600220023009201937B689E42C0D390
:101FB0000098019903B00CBC92469B46F0BDC04608
:101FC0008C3A00085C3A00085C3B0008BC0000202A
:101FD0007047C046F0B583B0061C9D231B01C41892
:101FE000201C274900F056FF264BF05A264BF518C7
:101FF00030270097019500210A220323FFF7ACFE4A
:10200000201C291C00F046FF201C204900F042FF44
:1020100000970195C82000210A220323FFF79CFEA8
:10202000201C291C00F036FF201C194900F03EFF3F
:10203000201C184900F02EFF174BF058009701950F
:1020400000210A220423FFF787FE201C291C00F030
:1020500021FF201C114900F01DFF114BF058009783
:10206000019500210A220323FFF776FE201C291C7C
:1020700000F010FF201C0B4900F018FF03B0F0BD6A
:10208000683B0008280A00002A0A0000703B00088C
:10209000783B0008883B0008C4090000943B000816
:1020A000C8090000983B000830B583B0041C0A4BF7
:1020B00018685968094BE5183023009301950021F1
:1020C0000A22263BFFF748FE9D231B01E018291C2E
:1020D00000F0ECFE03B030BDB00000202A0A000082
:1020E00030B583B0041C0D1C081C0A21FFF712FF39
:1020F0006B68012B0DD9002902D10CD104280AD913
:10210000002904D109D1E1235B01984205D90023BC
:1021100004E0002302E0002300E00123002B01D0B3
:102120000F4BE0509D231B01E518281C0D4900F0C2
:10213000B1FE0B4BE0580C4B9C466444302300939B
:10214000019400210A222C3BFFF706FE281C211CCB
:1021500000F0A0FE281C054900F0A8FE03B030BD29
:10216000C4090000B03B00082A0A0000BC3B00087C
:1021700030B583B0041C0D1C081C0A21FFF7CAFEF1
:102180006B68012B09D9031C0B4308D0002902D12D
:1021900007D1C82805D9002304E0002302E000236A
:1021A00000E00123002B01D00F4BE0509D231B01C9
:1021B000E518281C0D4900F06DFE0B4BE0580C4B48
:1021C0009C46644430230093019400210A222C3B56
:1021D000FFF7C2FD281C211C00F05CFE281C0549ED
:1021E00000F064FE03B030BDC8090000C03B000829
:1021F0002A0A0000983B000870B582B0041C9623A0
:102200001B01C1181F4BC218083BC25020264E604C
:102210001D4BC518281CFFF771FA1C4BE2181C4B0C
:10222000E250E3185E609D231B01E01819492A1C47
:1022300000F062FD9E231B01E018174B0093174925
:1022400001220523FFF77CFB154BE01806230093C2
:10225000144B01939021C9050322022300F02CFBAB
:102260000023114AA352114A0021A154104AA1543B
:10227000104AA3523C33104AA350104AA350201CCA
:1022800002B070BD6809000088090000A4090000C0
:102290009C0900000038014018010020000400489B
:1022A000080A000014010020280A00003B0A000070
:1022B0003A0A0000CC090000C4090000C809000067
:1022C00038B5051C0C1E01D0012200E00022902030
:1022D000C0050221FEF7C0FA014BEC5438BDC046E0
:1022E0003B0A000038B5051C0C1E01D0012200E09D
:1022F00000229020C0050121FEF7AEFA014BEC54FC
:1023000038BDC0463A0A000010B582B0041C9D23B7
:102310001B01C018E121490200F088FD9E231B012A
:10232000E018FFF72BFB0E4BE01800F0E1FA032357
:10233000009300236A469371D371012269460A71A2
:102340004B719020C005FEF76FF9201C0021FFF7AC
:10235000B7FF201C0021FFF7C5FF02B010BDC0462B
:10236000080A000008B50021FFF7BCFF08BDC04601
:10237000F0B55F4656464D46E0B48AB0041C0026D0
:1023800066E07500AB199B001859302399460093FD
:1023900006AF019700210A22263BFFF769FC011CCA
:1023A0009D231B019C46A44463460593604600F0B0
:1023B00071FD05982D4900F06DFDAB199B009A4603
:1023C000A244524690884A46009201970021263A3C
:1023D0000523FFF7C1FC011C059800F05BFD059883
:1023E000234900F057FD52460620105EC117042213
:1023F00093460092033A924601924A46029203970C
:10240000263A0A23FFF70CFD011C059800F042FD57
:102410000598184900F03EFDAD19AD006519082278
:10242000A85EC1175A460092524601924A4602924D
:102430000397263A0A23FFF7F3FC011C059D281C8D
:1024400000F028FD281C0C4900F030FD0136B6B222
:102450000A4BE35AB34294D80022084BE2520AB026
:102460001CBC91469A46A346F0BDC046CC3B000832
:10247000D03B0008D43B0008D83B0008280A0000E5
:1024800010B5041CFFF774FF9D231B01E0180249DF
:1024900000F00CFD10BDC046DC3B0008064BC35AE3
:1024A000B42B05D8054A8258934203D3012002E099
:1024B000012000E000207047280A0000C809000041
:1024C000F0B587B04B68002B4DD00191071C00245C
:1024D00037E063001B199B00244A9E58301C01F012
:1024E00063F9051C0296301C01F05EF90390019817
:1024F00002A9FFF773F9854222D163001B199B00E3
:102500001A4AD3189868C30705D463001C19A4009D
:102510001419646808E0431062001419A400134AF7
:102520001419FA586368D45840103F1801994B6841
:1025300004A82A1CFFF740F9381C04A9A04712E0A0
:102540000134072CC5DD9D231B019C466744381CC4
:10255000074900F09FFC381C019900F093FC381CDF
:10256000044900F0A3FC07B0F0BDC0464C3C000895
:10257000E03B0008EC3B0008F0B585B0041C0026E9
:102580004CE02A4BE25A2A4BE3185B68023B9A4222
:1025900007D30022254BE2520433E018254900F00E
:1025A00085FC234BE518214BE25A6846291C012380
:1025B000FFF702F9204BE0186946FFF7CBF8019AC4
:1025C000002A01D0009B00E01C4B1B780A2B04D092
:1025D0000D2B02D0082B1DD114E0002A01D0009B46
:1025E00000E0164B00271F70104EA35B02A8291CA9
:1025F0000022FFF7E1F8201C02A9FFF761FFA753B3
:1026000001260BE0094BE35A002B07D0013B074A98
:10261000A35203E0054AA35A0133A352084BE358DF
:10262000002BAED1301C05B0F0BDC046CC09000077
:102630009C090000003C000888090000BC00002044
:1026400094090000F0B583B0002513E06F00C719AE
:102650003E886B1C0193341C06E05A00125AA242B9
:1026600001D21D1C141C01338B42F6D36D0046535E
:102670003C80019D4B1EAB42E8D803B0F0BDC04684
:10268000F0B55F4656464D464446F0B485B0544BCF
:10269000C35AC72B00D99BE0041C524BC35C99461C
:1026A000002B06D10121FFF70BFEFA208000FEF778
:1026B000B1FF4B4BE25A90460132E252C3464A4BBD
:1026C00018685968FA229200002300F0C5FD4346BD
:1026D0005B0042469A1892001051A31800229A807B
:1026E000DA801A8101AB1A80002600239A462CE07A
:1026F0009E231B01E518281CFFF796F93B4BE718B2
:10270000381C00F05BF91E20FEF784FF381C00F037
:102710006DF9002806D053465A0001ABD052012370
:102720009C46E244281CFFF79BF900280CD0281C8B
:10273000FFF7BEF95B465B005B449B00E718F8803F
:10274000281CFFF7C3F938810136042ED0D943463F
:102750005B0043449B00E3181B89002B22D024E03C
:10276000FA20C000FEF756FF9E231B01E518281C27
:10277000FFF75AF91E20FEF74DFF281CFFF770F9EE
:1027800000280DD0281CFFF793F943465B00434413
:102790009B00E618F080281CFFF798F9308104E0D0
:1027A000013600E00026042EDAD901AD281C51467E
:1027B000FFF748FF53465B085B005A5B43465B00EC
:1027C00043449B00E3189A80201C4946FFF778FD9C
:1027D00005B03CBC90469946A246AB46F0BDC0460B
:1027E000280A00003B0A0000B0000020080A000090
:1027F00010B5041CFFF744FF9D231B01E01802499C
:1028000000F054FB10BDC046DC3B0008014B0360E8
:102810007047C04640390008F0B5474680B4071CF1
:102820001D4B9E681D4B18685968012200238018B3
:102830005941FA229200002300F02EFD041C0D1CC9
:10284000301C174B196800F061FB021C0023A41A0E
:102850009D417A7F013393409AB290461B041E0C2F
:10286000301CFDF75BFE002812D0301CFDF7C8FEBF
:10287000B869FDF767FF43461840804502D1BC6048
:10288000FD6005E0BA68FB68134301D0A41A7C60C0
:1028900004BC9046F0BDC04610E000E0B00000204F
:1028A000B800002010B5041C024B036000F02AFBA6
:1028B000201C10BD4039000838B5041C04A8057858
:1028C0000A4808302060246100206061A1612277FD
:1028D0006377A57700220023A260E3606060201C7C
:1028E0001030059900F08CF8201C38BDB03C000871
:1028F000F0B54F464646C0B487B0071C0120012101
:10290000FEF78EF9BB699022D205934209D180204F
:1029100080020121FEF75CF9797F0020FEF7F8F9CB
:102920000BE0254A934208D18020C0020121FEF726
:102930004FF9797F0120FEF7EBF93B7F0126321C2E
:102940009A40131C92B290467D7F321CAA40151CFF
:1029500002AC1B041B0C029300239946A371E37184
:1029600026716371B869211CFDF75EFEB8694146A6
:10297000FDF742FF2D042D0C0295A6714B46E37125
:1029800023716671B869211CFDF74EFE04A80495F9
:102990004B460371102343718671FDF759FD01A861
:1029A000062303704B4643708670FEF709F807B0A4
:1029B0000CBC90469946F0BD0004004838B5051C93
:1029C00000234360002200238260C360047F012350
:1029D000A3409CB28069211CFDF7DEFE0F20FEF7AC
:1029E0003DFEA869211CFDF707FF38BD08B5436807
:1029F000AA205843FA21890000F088FA80B208BD65
:102A00000B6843600860704710B5054B1C6804E014
:102A1000206803689B6898476468002CF8D110BD53
:102A20001801002010B5054B1C6804E020680368FD
:102A30009B6898476468002CF8D110BD14010020F1
:102A400010B5054B1C6804E0206803689B68984734
:102A50006468002CF8D110BD100100207047C046FA
:102A600010B5054C201C0021FFF73CFC201C002168
:102A7000FFF726FC10BDC0462001002010B5054C14
:102A8000201C0121FFF72EFC201C0121FFF718FC60
:102A900010BDC0462001002008B504489D231B013D
:102AA0009C466044024900F001FA08BD2001002064
:102AB000D43C000838B5041C0D1C012805D10C4B72
:102AC000994202D10B48FFF797FB002C0ED1084B1F
:102AD0009D420BD10748084B084A8350283A83503F
:102AE0009D231B019C46604400F022F938BDC0467E
:102AF000FFFF00002001002040390008080A000004
:102B000010B5041C8200034BD3589847024B1C702D
:102B100010BDC046C43C00081C01002008B50020C0
:102B20000021FEF739FD064B18685968FEF788FD4D
:102B300000200121FEF730FD0120FFF7E1FF08BD75
:102B4000600B002038B5104C201CFFF799FD0F4B8F
:102B5000E0580F4D0021FA229200002300F09CFB68
:102B60002A686B688018594128606960201CFFF74B
:102B700095FC002803D00220FFF7C2FF02E00020EE
:102B8000FFF7BEFF38BDC04620010020C409000089
:102B9000600B002010B51A4B18685968194B1A6859
:102BA0005B688B4215D801D1824212D8164C201C8A
:102BB000FFF766FD154BE058124C0021FA229200F7
:102BC000002300F069FB2268636880185941206087
:102BD00061600D48FFF7D0FC002803D00320FFF709
:102BE0008FFF0BE008489D231B019C466044084969
:102BF00000F05CF9FA208000FEF70CFD10BDC04625
:102C0000B0000020600B002020010020C40900005B
:102C1000E03C000810B5154B18685968144B1A6849
:102C20005B688B4215D801D1824212D8114C201C0E
:102C3000FFF726FD104BE0580D4C0021FA229200C0
:102C4000002300F029FB2268636880185941206046
:102C50006160084C201CFFF78FFC084BE35C002BE5
:102C600002D10020FFF74CFF10BDC046B00000208D
:102C7000600B002020010020C40900003A0A000077
:102C800010B500200121FEF787FC0E4C201CFFF739
:102C90003BFB201C0021FFF713FB0B4B1868596806
:102CA000FA229200002312184B4108490A604B6037
:102CB0000220FFF725FF064B1B789B00054A9B5817
:102CC0009847F8E720010020B0000020600B0020AA
:102CD0001C010020E83C000808B501200149FFF76D
:102CE000E9FE08BDFFFF000008B500200149FFF71D
:102CF000E1FE08BDFFFF000008B50160426000234F
:102D00000372064B994205D005483921054A064B06
:102D1000FEF7D2FA054B186008BDC04600380140E6
:102D2000503D0008203D0008643D0008680B00206D
:102D300010B5041C00680021FEF734F9044B1B6831
:102D40009C4202D10022024B1A60201C10BDC046DA
:102D5000680B0020F0B5474680B486B0071C01918F
:102D60002D4B02689A424CD18020C0010121FDF711
:102D700057FF802080020121FDF72AFF03AD1B23AE
:102D80002B7004AC8023DB0004930026A671E6714F
:102D900002239846237166719020C005211CFDF71F
:102DA00043FC80239B000493A671E6714346237184
:102DB0009020C005211CFDF737FC9020C00509219B
:102DC0000122FDF7B3FD9020C0050A210122FDF785
:102DD000ADFD3868FDF7C0FF38680199FEF710F8BF
:102DE00003236B70023BAB70281CFDF7E9FD3868CC
:102DF0000A490122FEF758F938680121FEF7D2F896
:102E000005E007488921074A074BFEF755FA06B047
:102E100004BC9046F0BDC0460038014005010500E5
:102E2000503D0008F83C0008643D000800B587B03C
:102E3000009100230193029303930C2204920593C3
:102E40006946FFF787FF07B000BDC046F8B5002907
:102E500017D0171C0E1C041C00250AE020688021D6
:102E6000FEF7A4F90028F9D0795D2068FEF7CCF8C8
:102E70000135B542F2D320684021FEF797F90028CA
:102E8000F9D0F8BD08B50B1C49681A68FFF7DEFFDA
:102E900008BDC04638B5051C0C1C081C00F084FC9D
:102EA000011C281C221CFFF7D1FF38BD10B5041CE3
:102EB000FFF7F0FF201C0221014AFFF7C7FF10BDFA
:102EC000803D000810B5041C00682021FEF76EF953
:102ED00000280BD02068FEF7C5F8C1B26068FEF785
:102EE00015FC01235840237A1843207210BDC046B8
:102EF00008B5034B1868002801D0FFF7E3FF08BDB1
:102F0000680B002008B500F0FFFB08BD0022430855
:102F10008B4274D303098B425FD3030A8B4244D3A1
:102F2000030B8B4228D3030C8B420DD3FF220902E3
:102F300012BA030C8B4202D31212090265D0030BA2
:102F40008B4219D300E0090AC30B8B4201D3CB0398
:102F5000C01A5241830B8B4201D38B03C01A5241DA
:102F6000430B8B4201D34B03C01A5241030B8B42DC
:102F700001D30B03C01A5241C30A8B4201D3CB02C7
:102F8000C01A5241830A8B4201D38B02C01A5241AC
:102F9000430A8B4201D34B02C01A5241030A8B42AF
:102FA00001D30B02C01A5241CDD2C3098B4201D3C7
:102FB000CB01C01A524183098B4201D38B01C01A45
:102FC000524143098B4201D34B01C01A52410309BC
:102FD0008B4201D30B01C01A5241C3088B4201D36B
:102FE000CB00C01A524183088B4201D38B00C01A18
:102FF000524143088B4201D34B00C01A5241411A3F
:1030000000D20146524110467047FFE701B500204B
:1030100000F0FCF802BDC0460029F7D003B5FFF769
:1030200075FF0EBC4243891A1847C04603460B433E
:103030007FD4002243088B4274D303098B425FD3B1
:10304000030A8B4244D3030B8B4228D3030C8B42DD
:103050000DD3FF22090212BA030C8B4202D31212C3
:10306000090265D0030B8B4219D300E0090AC30B98
:103070008B4201D3CB03C01A5241830B8B4201D345
:103080008B03C01A5241430B8B4201D34B03C01A2E
:103090005241030B8B4201D30B03C01A5241C30AA6
:1030A0008B4201D3CB02C01A5241830A8B4201D317
:1030B0008B02C01A5241430A8B4201D34B02C01A01
:1030C0005241030A8B4201D30B02C01A5241CDD2A6
:1030D000C3098B4201D3CB01C01A524183098B42F1
:1030E00001D38B01C01A524143098B4201D34B01DA
:1030F000C01A524103098B4201D30B01C01A52413D
:10310000C3088B4201D3CB00C01A524183088B42C3
:1031100001D38B00C01A524143088B4201D34B00AC
:10312000C01A5241411A00D201465241104670471E
:103130005DE0CA0F00D04942031000D34042534023
:1031400000229C4603098B422DD3030A8B4212D3E3
:10315000FC22890112BA030A8B420CD38901921115
:103160008B4208D3890192118B4204D389013AD052
:10317000921100E08909C3098B4201D3CB01C01A27
:10318000524183098B4201D38B01C01A524143093A
:103190008B4201D34B01C01A524103098B4201D328
:1031A0000B01C01A5241C3088B4201D3CB00C01A95
:1031B000524183088B4201D38B00C01A5241D9D2AD
:1031C00043088B4201D34B00C01A5241411A00D22E
:1031D0000146634652415B10104601D34042002B2A
:1031E00000D54942704763465B1000D3404201B5A9
:1031F000002000F00BF802BD0029F8D003B5FFF75E
:1032000015FF0EBC4243891A1847C0467047C04696
:10321000002B15D1002A13D1002906DB01DC002880
:1032200006D00020C043410802E0802109060020AA
:1032300007B4024801A14018029003BDD1FFFFFF6F
:1032400003B4684601B5029800F050F8019B9E4611
:1032500002B00CBC7047C046002B11D1002A0FD120
:10326000002900D1002802D00021C943081C07B45E
:10327000024802A14018029003BDC04691FFFFFF23
:1032800003B4684601B5029800F04CF8019B9E46D5
:1032900002B00CBC7047C046F0B54F464646050428
:1032A0002D0C2C1CC0B41704160C3F0C9946030CB3
:1032B0007C4375435F4373437D19260CAD199C46CF
:1032C000AF4203D980235B029846C4444B46514326
:1032D000434324042E0C240C2D0466442C19591845
:1032E0008919201C0CBC90469946F0BDF0B583B0FE
:1032F000161C1F1C0090019100F04CF8041C0D1CC2
:10330000221C2B1C301C391CFFF7C6FF009A019BA6
:10331000121A8B410899201C0A604B60291C03B0CB
:10332000F0BDC046F0B5141C83B01D1C0090019187
:1033300000F028F9221C2B1C061C0F1CFFF7ACFF09
:10334000009A019B121A8B410899301C0A604B604D
:10335000391C03B0F0BDC0461C2101231B04984258
:1033600001D3000C10391B0A984201D3000A083916
:103370001B09984201D30009043902A2105C4018CD
:103380007047C04604030202010101010000000071
:1033900000000000F0B544465F4656464D46F0B486
:1033A0001C1C85B0002900DAA9E00F1C0021061CB6
:1033B0008846101C191C002C00DA97E0341C3D1CB8
:1033C00082468946B94273D870D04946504600F0CB
:1033D00085F98346391C301C00F080F95B46181AC9
:1033E000031C8346203B9C4600D59CE00023002222
:1033F00051460092019363469940019151468140A4
:10340000019B0091BB4200D983E000D17EE0009A8D
:10341000019B341C3D1CA41A9D416346002B00DA1D
:103420009AE0002600270296039701369E400396F5
:10343000012686400296002800D171E00099019A89
:10344000D30799464B464E081E43570800230122D6
:103450000CE0AF4201D1A6420AD8A41BBD412419F9
:103460006D410138A4185D41002806D0AF42F0D963
:10347000013824196D410028F8D12022029E039FB3
:103480005B46524236196F4199185AD4281CC840DD
:103490002C1C5B46DC40002968DB041C8C40231C90
:1034A00059468840021CB61A9F4103E0B0428CD9AD
:1034B0000026002741464B1E9941002300910193AD
:1034C000009A019B002554429D41331C6340181C07
:1034D0003B1C6B40191C009B019CC018614105B04E
:1034E0003CBC90469946A246AB46F0BD4346DB4302
:1034F0000C1C9846131C00215842A1415EE700278E
:1035000046428F4101214942884652E7B14200D8E4
:103510007DE70026002702960397002800D08DE75C
:10352000029E039FC6E720215346091ACB40002282
:10353000191C0023009201934B4683400B430193D7
:103540005CE75A4620239B1A2A1C9A40201C131C15
:103550005A46D04018439BE720260027331A0026FE
:10356000029603970127DF40039761E75B4620211E
:103570005D46C91A031CAC40CB40191C231C0B43ED
:103580008EE7C046F0B545464E465746E0B4041CAB
:1035900082B00D1C914698468B4262D85FD041465E
:1035A000484600F09BF8291C061C201C00F096F8E9
:1035B0002023311A5B428A46C81865D44B468340A3
:1035C0001F1C4B468B401E1CAF4258D855D0A41B25
:1035D000BD41002800DA77E0002200230092019329
:1035E00001328240019201238B40009300293CD09C
:1035F000FB079846404672087B08024301260027D5
:103600000CE0AB4201D1A2420AD8A41A9D41241970
:103610006D410139A4197D41002906D0AB42F0D992
:10362000013924196D410029F8D12022009801990F
:1036300053465242001969419E183AD42F1CF74054
:103640005346DD40002E29DB3C1CB440231C54466D
:10365000A7403A1C801A99410090019105E08242EE
:103660009DD900230024009301940098019902B091
:103670001CBC90469946A246F0BDA342A7D90022A1
:10368000002300920193B1E720224B46521AD34007
:103690001A1C43468B401F1C174392E753462024B5
:1036A0005646E41A3B1CB540E3401C1C2B1C23432C
:1036B000CDE7524620239B1A2A1C9A40271C131C34
:1036C0005246D7401F43BBE720230022581A00234D
:1036D000009201930132C240019284E710B50029A3
:1036E00003D1FFF739FE203002E0081CFFF734FE5B
:1036F00010BDC046034B1B681818082340781840BB
:103700007047C0469800002008B5034B011C18689C
:1037100000F004F808BDC0469400002030B5002930
:103720003ED004390B68002B00DAC9181D4A136813
:10373000141C002B02D14B60116031E099420DD274
:1037400008680A189A4203D11368C3180B605368BB
:103750004B60216024E08A4203D8131C5A68002A77
:10376000F9D11D685C198C420BD109686918581889
:103770001960904214D110685268091819605A6093
:103780000EE08C4202D90C23036009E008680C1893
:10379000944203D114685268001908604A60596065
:1037A00030BDC0466C0B00200023C25C0133002AF0
:1037B000FBD1581E70470000044B1B681B185A7839
:1037C00003231340022B00D12038704798000020BB
:1037D0002E2E2F73797374656D2F7372632F73742C
:1037E0006D333266302D7374647065726970682F42
:1037F00073746D3332663078785F646D612E630068
:103800002E2E2F73797374656D2F7372632F7374FB
:103810006D333266302D7374647065726970682F11
:1038200073746D3332663078785F657874692E63AF
:10383000000000002E2E2F73797374656D2F737244
:10384000632F73746D333266302D737464706572D8
:103850006970682F73746D3332663078785F677083
:10386000696F2E63000000002E2E2F73797374652C
:103870006D2F7372632F73746D333266302D7374D2
:10388000647065726970682F73746D333266307856
:10389000785F6D6973632E63000000002E2E2F7316
:1038A000797374656D2F7372632F73746D33326621
:1038B000302D7374647065726970682F73746D3322
:1038C00032663078785F7263632E63002E2E2F731A
:1038D000797374656D2F7372632F73746D333266F1
:1038E000302D7374647065726970682F73746D33F2
:1038F00032663078785F7379736366672E63000091
:103900002E2E2F73797374656D2F7372632F7374FA
:103910006D333266302D7374647065726970682F10
:1039200073746D3332663078785F75736172742E9C
:103930006300000000000000000000000000000024
:1039400000000000000000009512000800000000C8
:103950000000000000000000391800082D190008C0
:1039600045180008636861722A2075746F73747259
:103970002875696E7436345F742C20756E736967B0
:103980006E656420696E742C20756E7369676E6550
:103990006420696E742C20636861722C20636861F6
:1039A000722A2900636861722068657863686172B1
:1039B00028756E7369676E656420696E74290000EE
:1039C000636861722A2069746F73747228696E74F7
:1039D00036345F742C20756E7369676E6564206978
:1039E0006E742C20756E7369676E656420696E74E1
:1039F0002C20636861722C20636861722A290000A0
:103A0000636861722A2064746F7374727828696EB7
:103A10007436345F742C20756E7369676E6564202C
:103A2000696E742C20756E7369676E656420696EAB
:103A3000742C20756E7369676E656420696E742CD2
:103A400020756E7369676E656420696E742C2063DF
:103A50006861722C20636861722A290075696E742E
:103A600036345F7420737472746F756C28636F6E74
:103A7000737420627566666572262C20756E736994
:103A8000676E656420696E74290000002E2E2F7306
:103A900072632F64746F737472662E6370700000AB
:103AA00069203C203336000062617365203E20317E
:103AB0002026262062617365203C3D2033360000BD
:103AC0007769647468203E3D20320000627566208C
:103AD000213D2030000000007769647468203E3D7D
:103AE000203100002870726563203E203020262699
:103AF000207769647468203E3D20707265632B33C3
:103B000029207C7C202870726563203D3D20302078
:103B10002626207769647468203E3D203229000003
:103B20002870726563203E20302026262077696445
:103B30007468203E3D20707265632B3229207C7CA6
:103B4000202870726563203D3D2030202626207796
:103B500069647468203E3D20312900007261646907
:103B600078203C3D2033360053746F72656420002A
:103B7000206F662000000000206F6273657276611E
:103B800074696F6E73000000506572696F6420691C
:103B9000732000002C200000206F62736572766134
:103BA00074696F6E732F7265626F6F74000000002E
:103BB000504552494F442069732000002073000093
:103BC000434F554E54206973200000002C00000024
:103BD0006D6D2C00432C0000250000004F4B0000B1
:103BE0004552524F523A20270000000027206E6FA6
:103BF00074207265636F676E69736564000000000E
:103C00004552524F523A206F7665722D6C6F6E6737
:103C1000206C696E6500000054494D4500000000AD
:103C200044554D50000000004F4253455256450048
:103C30005354415455530000504552494F440000DD
:103C4000434F554E540000004F464600DC3B0008F1
:103C5000D11F000800000000183C0008A92000083F
:103C600000000000203C0008812400080000000043
:103C7000283C0008F127000800000000303C000844
:103C8000D51F000800000000383C0008E1200008B3
:103C900000000000403C0008712100080000000006
:103CA000483C0008652300080000000000000000F8
:103CB00000000000000000000D280008A5280008F2
:103CC00019280008612A00085D2A00087D2A0008DA
:103CD000992A0008434F4E4E454354454400000086
:103CE00050494E47000000001D2B0008452B0008DE
:103CF000952B0008152C0008766F696420536572B7
:103D000069616C3A3A736574757028555341525421
:103D10005F496E6974547970654465662A290000AC
:103D200053657269616C3A3A53657269616C2855E2
:103D3000534152545F547970654465662A2C206261
:103D40006F756E6465645F6275666665722A2900C8
:103D50002E2E2F7372632F73657269616C2E6370E0
:103D6000700000002122696E76616C6964205553F1
:103D70004152542073656C656374696F6E22000054
:103D80000D0A0000430000202020202020202020B9
:103D900028282828282020202020202020202020FB
:103DA000202020202020208810101010101010102B
:103DB000101010101010100404040404040404046F
:103DC00004101010101010104141414141410101F7
:103DD00001010101010101010101010101010101D3
:103DE00001011010101010104242424242420202E1
:103DF00002020202020202020202020202020202A3
:103E0000020210101010200000000000000000004E
:103E100000000000000000000000000000000000A2
:103E20000000000000000000000000000000000092
:103E30000000000000000000000000000000000082
:103E40000000000000000000000000000000000072
:103E50000000000000000000000000000000000062
:103E60000000000000000000000000000000000052
:103E70000000000000000000000000000000000042
:073E8000000000000000003B
:083E88000CF5FF7F01000000B2
:103E900078563412000000000102030401020304FA
:103EA00006070809A4000020000000000000000030
:103EB00000000000010203040607080900127A004E
:103EC0007D15000800000000000000000000000058
:103ED00000000000000000000000000000000000E2
:103EE00000000000843D0008000000000000000009
:103EF00000000000000000000000000000000000C2
:103F000000000000000000000000000000000000B1
:103F100000000000000000000000000000000000A1
:103F20000000000034000020863D000832547698DE
:04000005080000C52A
:00000001FF
