:020000040800F2
:1000000000100020DD010008E5010008E9010008FA
:1000100000000000000000000000000000000000E0
:1000200000000000000000000000000005020008C1
:10003000000000000000000009020008151500087B
:100040001502000800000000150200081502000853
:1000500015020008B51D0008D11D0008ED1D00089F
:10006000000000000D1900081D19000835190008CE
:100070001502000815020008150200080000000023
:100080001502000800000000000000001502000832
:1000900015020008150200081502000815020008E4
:1000A000150200081502000815020008FD210008CD
:1000B0001502000800000000000000000000000021
:1000C0005FF808F130B583B001F094F8314B324A53
:1000D0001360324A1360324B324A03E011681960F0
:1000E0000433043230498B42F8D32B4B1A682F4B20
:1000F0009A4204D1294B1A682D4B9A4200D0FEE750
:10010000244B2C4A13602C4A13602C4B02E0002233
:100110001A6004332A4A9342F9D3264B1B68002BFA
:1001200003D1254B1B68002B00D0FEE701F066F8D9
:1001300001A8694601F04EF8224C234B1C1BA41069
:10014000002504E0AA001F4BD35898470135AC4264
:10015000F8DC1E4C1E4B1C1BA410002504E0AA005A
:100160001A4BD35898470135AC42F8DC01980099F6
:1001700001F03AFF051C174C174B1C1BA41004E0A0
:10018000013CA200134BD3589847002CF8DC281CE4
:1001900001F01AF8BABADECA000000209800002068
:1001A00000000020802E00089C00002078563412A9
:1001B00032547698A000002034020020A0000020D5
:1001C00038020020400200084002000840020008F7
:1001D00048020008480200084C02000808B5FFF772
:1001E00071FFC04600BEFEE704207146084202D0FF
:1001F000EFF3098001E0EFF308807146044A1047ED
:1002000000BEFEE700BEFEE700BEFEE7704700004E
:080210000102000800BEFEE738
:10021800802E0008000000209C000020802E00088E
:100228000000000000000000A000002038020020AC
:1002380000000000000000004D190008F51F00082C
:040248000520000885
:1002500010B5041E324B9C4215D0324B984212D03E
:10026000314B98420FD0314B98420CD0304B9842D2
:1002700009D0304B984206D02F4B984203D02F48DC
:10028000842100F0B3FF22682D4B1340236000232C
:1002900023606360A360E360214B9C4205D1294A3F
:1002A00051680F230B43536039E01E4B9C4205D12C
:1002B000244A5168F0230B43536030E01A4B9C42B0
:1002C00006D1204A5368F02109010B43536026E010
:1002D000164B9C4206D11B4A5368F02109020B437E
:1002E00053601CE0124B9C4206D1164A5368F02121
:1002F00009030B43536012E00E4B9C4206D1114A96
:100300005368F02109040B43536008E00A4B9C42F8
:1003100005D10C4A5368F02109050B43536010BD09
:10032000080002401C00024030000240440002402D
:10033000580002406C00024080000240682A000819
:10034000FEFF00000000024010B5041C431E012BFC
:1003500060D904285ED008285CD010285AD0202804
:1003600058D0402856D0802854D080235B00984233
:1003700050D00133FF3398424CD08023DB009842A9
:1003800048D080231B01984244D080235B019842CF
:1003900040D080239B0198423CD08023DB019842CF
:1003A00038D080231B02984234D080235B029842CD
:1003B00030D080239B0298422CD08023DB029842CD
:1003C00028D080231B03984224D080235B039842CB
:1003D00020D080239B0398421CD08023DB039842CB
:1003E00018D080231B04984214D080235B049842C9
:1003F00010D080239B0498420CD08023DB049842C9
:1004000008D080231B05984204D00648802189002B
:1004100000F0ECFE044B1B681C4201D0012000E000
:10042000002010BD682A00080000024010B5041C1E
:10043000030F01D1002804D103488F21890000F067
:10044000D5FE024B5C6010BD682A00080000024027
:1004500010B5041C0379002B05D0042B03D02D48C4
:10046000852100F0C3FE6379082B07D00C2B05D043
:10047000102B03D02748862100F0B8FE2368E22223
:10048000D205134201D1002B03D12248872100F06D
:10049000ADFEA379012B03D91E48882100F0A6FEEA
:1004A000A379002B2CD01C4B1A6821688A431A6050
:1004B0005A6821688A435A6022799C4662441168CE
:1004C0002068014311609A6821688A439A60DA685B
:1004D00021688A43DA606379102B09D163469A68F0
:1004E00021680A439A60D96822680A43DA600FE0FB
:1004F000094A94466344196822680A431A6007E06F
:100500002379054A944663441A6821688A431A602D
:1005100010BDC046982A00080004014010B5041C14
:10052000431E012B5FD904285DD008285BD010281A
:1005300059D0202857D0402855D0802853D0802328
:100540005B0098424FD00133FF3398424BD0802359
:10055000DB00984247D080231B01984243D0802380
:100560005B0198423FD080239B0198423BD080237F
:10057000DB01984237D080231B02984233D080237E
:100580005B0298422FD080239B0298422BD080237D
:10059000DB02984227D080231B03984223D080237C
:1005A0005B0398421FD080239B0398421BD080237B
:1005B000DB03984217D080231B04984213D080237A
:1005C0009B0498420FD08023DB0498420BD08023F9
:1005D0001B05984207D080231B06984203D006488B
:1005E000E92100F003FE054B5B691C4201D00120AC
:1005F00000E0002010BDC046982A00080004014019
:1006000010B5041CE223DB05184201D1002803D1F8
:100610000348FF2100F0EAFD024B5C6110BDC046BB
:10062000982A000800040140F8B5051C0E1C902310
:10063000DB05984212D03D4B98420FD03C4B98427C
:100640000CD03C4B984209D03B4B984206D03B4BD8
:10065000984203D03A48B42100F0C8FD3368002B1B
:1006600003D13748B52100F0C1FD3379032B03D9FD
:100670003348B62100F0BAFDF379022B03D9304894
:10068000B72100F0B3FD00244CE00123A340326801
:100690001A409A4245D13379013B012B28D873790E
:1006A000012B05D9032B03D02548C72100F09EFD5F
:1006B000AA686000032181408A43AA60A968727910
:1006C000131C83400B43AB60B379012B03D91C4847
:1006D000CE2100F08BFDAB882204120C0121914049
:1006E0008B43AB80A888B17991408BB20343AB8038
:1006F0002B6867000320021CBA4093432B602B68D1
:1007000031790A1CBA401A432A60EB682204D20BE2
:1007100090408343EB60E968F279131CBB400B43C4
:10072000EB6001340F2CB0D9F8BDC046000400487E
:1007300000080048000C0048001000480014004861
:10074000CC2A000810B5041C9023DB05984213D076
:100750000B4B984210D00B4B98420DD00A4B98424D
:100760000AD00A4B984207D0094B984204D0094856
:10077000A721490000F03AFD208A80B210BDC04692
:100780000004004800080048000C00480010004821
:1007900000140048CC2A000838B5041C0D1C902316
:1007A000DB05984213D00E4B984210D00D4B984267
:1007B0000DD00D4B98420AD00C4B984207D00C4BF1
:1007C000984204D00B48C821490000F00FFD002DCD
:1007D00004D108489221FF3100F008FDA56138BD21
:1007E0000004004800080048000C004800100048C1
:1007F00000140048CC2A000838B5041C0D1C9023B6
:10080000DB05984213D00E4B984210D00D4B984206
:100810000DD00D4B98420AD00C4B984207D00C4B90
:10082000984204D00B48A621FF3100F0DFFC002DD8
:1008300004D10848D321490000F0D8FC258538BDF3
:100840000004004800080048000C00480010004860
:1008500000140048CC2A000870B5051C0C1C161C9E
:100860009023DB05984212D0174B98420FD0174BBC
:1008700098420CD0164B984209D0164B984206D09D
:10088000154B984203D01548154900F0AFFC0F2CCA
:1008900003D91248134900F0A9FC072E03D90F48C9
:1008A000114900F0A3FC072323409B009E40E10870
:1008B000083189004A590F20984082434A514B59C8
:1008C0001E434E5170BDC046000400480008004859
:1008D000000C00480010004800140048CC2A000812
:1008E0000D0200000E0200000F02000070B5041C93
:1008F0008378012B03D91948522100F077FC6378E3
:10090000032B03D91548532100F070FCA378002B6A
:100910001AD021788808124EC030800085590323F0
:100920001940C900FC331A1C8A4095436278920131
:100930001A40131C8B402B43835123781F221340F2
:100940001E3A9A40326008E023781F2213401E3A74
:100950009A40131C802202498B5070BD002B000866
:1009600000E100E070B5041C5D4B5B680C22134095
:10097000042B0CD002D8002B05D028E0082B0AD07D
:100980000C2B20D023E0574B0360002022E0554B76
:10099000036000201EE0524B586880025A68000F26
:1009A000851CC0235B021A4202D14F48684308E00D
:1009B0004B4BDB6A0F21194001314A4801F02CFCF6
:1009C0006843206006E0494B0360002002E0454B8D
:1009D0002360002042494B681B061B0F444DEB5C13
:1009E000DBB22668321CDA4062604B685B055B0F45
:1009F000EB5CDBB2DA40131CA2600A6BD20502D4B6
:100A00003C4AE26008E0364A5268520402D45A086E
:100A1000E26001E09A08E260314A126B520602D4A9
:100A2000354A226102E08022120222612C4A126BB6
:100A3000D20602D42B4A626100E06661284A126B3A
:100A4000920701D1A36119E0254A126B03210A40E4
:100A5000012A01D1A66111E0214A126B03210A404B
:100A6000022A03D180221202A26107E01C4A126B03
:100A700003210A40032A01D11A4AA261184A116BC4
:100A8000C0229202114201D1E36120E0144B1A6BA3
:100A9000C0239B02134080225202934201D1E6619F
:100AA00015E00F4B1A6BC0239B0213408022920269
:100AB000934203D180231B02E36108E0084B1B6BC8
:100AC000C02292021340934201D1064BE361044BD2
:100AD0001B6B1B0602D4054B236200E0206270BD35
:100AE0000010024000127A0000093D00006CDC0298
:100AF00004000020809FD5001280000038B5041C3F
:100B00000D1C0D4B184201D1002803D10B480C4994
:100B100000F06CFB012D03D908480A4900F066FB80
:100B2000002D04D0084B5A6914435C6103E0064A67
:100B30005369A343536138BDAAFF81FE342B0008DB
:100B400036050000370500000010024038B5041CCF
:100B50000D1C0D4B184201D1002803D10B480C4944
:100B600000F044FB012D03D908480A4900F03EFB80
:100B7000002D04D0084B9A6914439C6103E0064A97
:100B80009369A343936138BDFEA5B8FF342B0008D9
:100B90005A0500005B0500000010024038B5041C37
:100BA0000D1C0E4B184201D1002803D10C480D49F1
:100BB00000F01CFB012D04D90948B921C90000F03F
:100BC00015FB002D04D0084BDA681443DC6003E009
:100BD000054AD368A343D36038BDC046FEA5B8FF1D
:100BE000342B0008C70500000010024038B5041C73
:100BF0000D1C0D4B184201D1002803D10B480C49A4
:100C000000F0F4FA012D03D908480A4900F0EEFA81
:100C1000002D04D0084B1A6914431C6103E0064AF6
:100C20001369A343136138BDCCB61185342B00087A
:100C3000F1050000F20500000010024070B5051C2F
:100C40000C1C052803D90D48EA2100F0CFFA0F2C1F
:100C500003D90A48EB2100F0C9FA032323409B0083
:100C60000F269E40A108064A023189008858B043E9
:100C7000885088589D4005438D5070BD642B0008F6
:100C80000000014010B5041E234B9C420CD0234BA6
:100C9000984209D0224B984206D0224B984203D06A
:100CA0002148B12100F0A2FA1B4B9C420AD18024BA
:100CB000E401201C0121FFF771FF201C0021FFF738
:100CC0006DFF28E0154B9C420AD18024A402201C11
:100CD0000121FFF78BFF201C0021FFF787FF1AE09F
:100CE0000F4B9C420AD18024E402201C0121FFF713
:100CF0007DFF201C0021FFF779FF0CE0094B9C428F
:100D000009D180242403201C0121FFF76FFF201C40
:100D10000021FFF76BFF10BD003801400044004088
:100D200000480040004C0040982B0008F0B58DB002
:100D3000041C0D1C5B4B98420CD05B4B984209D0B5
:100D40005A4B984206D05A4B984203D05948DC215E
:100D500000F04CFA2B68013B574A934203D955489F
:100D6000DD2100F043FA6B68002B0AD0802252018B
:100D7000934206D0514A934203D04E48DE2100F000
:100D800035FAAB68002B0BD080229201934207D03A
:100D9000C0229201934203D04648DF2100F026FA98
:100DA000EB68002B0BD08022D200934207D0C022E8
:100DB000D200934203D03F48E02100F017FA2B699C
:100DC0000C22191C914301D1002B03D13948E12198
:100DD00000F00CFA6B69002B0FD080225200934276
:100DE0000BD00132FF32934207D00132FF329342DF
:100DF00003D03048E22100F0F9F92368012293433F
:100E0000236062682E4B1340AA6813436360226814
:100E10002C4B1A406B68E9680B4329690B43134359
:100E20002360A268284B13406A691343A36003A898
:100E3000FFF798FD1B4B9C4201D1099E05E01A4B20
:100E40009C4201D10A9E00E0059E23681B040CD53C
:100E500076002B68301C0193191C01F0DDF9071C8A
:100E6000301C019901F05EFA0AE02B68301C0193F6
:100E7000191C01F0D1F9071C301C019901F052FA3C
:100E80002B685B088B4200D8013723681B0405D50B
:100E90003B075B0F0D4A3A401A43171CBBB2A381B4
:100EA0000DB0F0BD00380140004400400048004053
:100EB000004C0040982B00087F8D5B000010001054
:100EC000FFCFFFFFF3E9FFFFFFFCFFFFF0FF000094
:100ED00038B5041C0D1C124B98420DD0114B984292
:100EE0000AD0114B984207D0104B984204D01048BA
:100EF000C821490000F07AF9012D04D90C4892214B
:100F0000FF3100F073F9002D04D022680123134350
:100F1000236003E0236801229343236038BDC04669
:100F2000003801400044004000480040004C0040B0
:100F3000982B000838B5051C0C1C0D4B98420CD0A2
:100F40000C4B984209D00C4B984206D00B4B984260
:100F500003D00B480B4900F049F90B4B9C4203D9D5
:100F600007480A4900F042F9E405E40D2C8538BD34
:100F7000003801400044004000480040004C004060
:100F8000982B000895030000FF0100009603000065
:100F900010B5041E094B9C420CD0094B984209D055
:100FA000084B984206D0084B984203D0074808499E
:100FB00000F01CF9A08CC005C00D10BD0038014028
:100FC0000044004000480040004C0040982B0008BE
:100FD000A603000070B5051C0C1C161C2C4B984277
:100FE0000CD02C4B984209D02B4B984206D02B4B5F
:100FF000984203D02A482B4900F0F8F884235B007C
:101000009C4225D0284B9C4222D0284B9C421FD08A
:10101000274B9C421CD0274B9C4219D0264B9C420C
:1010200016D0264B9C4213D0C0239B009C420FD06D
:10103000234B9C420CD0234B9C4209D0224B9C4218
:1010400006D0224B9C4203D01548214900F0CEF82F
:10105000012E03D912481F4900F0C8F8291CA2B27A
:10106000120AFF231C40FE3BA3401C1C022A01D194
:10107000291D03E0032A01D1291C0831002E03D0C9
:101080000B681C430C6002E00B68A3430B6070BD4F
:10109000003801400044004000480040004C00403F
:1010A000982B00080507000007010700060106004D
:1010B0000501050004010400060208000A030900F6
:1010C0001A010B001B010C000E0111001603140085
:1010D000060700000707000038B5051C0C1C314B43
:1010E00098420CD0304B984209D0304B984206D0F1
:1010F0002F4B984203D02F482F4900F077F8012C4E
:1011000049D0802C47D0402C45D0202C43D0102CE7
:1011100041D080235B009C423DD00133FF339C4291
:1011200039D0082C37D0042C35D0022C33D0802372
:10113000DB009C422FD080231B019C422BD08023BC
:101140005B019C4227D08023DB019C4223D080237B
:101150001B029C421FD080235B029C421BD0802339
:101160009B029C4217D08023DB029C4213D0802339
:101170001B039C420FD080235B039C420BD0802337
:101180009B039C4207D08023DB039C4203D0094889
:101190000A4900F02BF8EB691C4201D0012000E065
:1011A000002038BD003801400044004000480040A5
:1011B000004C0040982B00089307000094070000A3
:1011C00008B500F003F8C046FEE7C04608B50120A8
:1011D000FFF7FAFF01230360014B0B607047C04625
:1011E0001400002008B5FFF7F1FFC04608B5FFF76F
:1011F000EDFFC04608B500F05DF808BD08B500F089
:101200008BF808BD82B0002301930093264A13682F
:10121000802149020B431360234B1A6880239B02F1
:1012200013400093019B01330193009B002B04D1D9
:10123000019AA023DB019A42EED11B4B1B689B0352
:1012400002D50123009301E000230093009B012BB2
:1012500028D11122154B1A60134B5A685A605A68EC
:101260005A605968124A0A405A605A6888214903EC
:101270000A435A601A68802149040A431A600A4BDB
:101280001B689B01FBD5084B5A6803218A435A60AF
:10129000596802220A435A60034B5B680C221340D0
:1012A000082BF9D102B07047001002400020024024
:1012B000FF7FC0FF08B5124B1A6801210A431A606C
:1012C0005868104A02405A6018680F4A02401A6073
:1012D00018680E4A02401A6058680D4A02405A6067
:1012E000DA6A0F208243DA62186B0A4A02401A63F4
:1012F0005A6B8A435A6300229A60FFF783FF08BD46
:10130000001002400CB8FF08FFFFF6FEFFFFFBFFD6
:10131000FFFFC0FFACFEFFFF10B51E4B5B680C2249
:101320001340042B07D0082B09D0002B22D11A4AD6
:101330001A4B1A6021E0184A184B1A601DE0154B31
:101340005C68A4025A68240F0234C0235B021A426C
:1013500004D113484443114B1C600EE00D4BDB6A73
:101360000F21194001310C4800F056FF44430B4B4C
:101370001C6002E0084A094B1A60064B5B681B06BA
:101380001B0F084AD35CDBB2044A1168D9401160D4
:1013900010BDC0460010024000127A002C00002050
:1013A00000093D001C00002030B505490C684D685F
:1013B0000122002312196B410A604B6030BDC04608
:1013C000B000002008B5164B1868164900F024FF3D
:1013D000154B1860FA239B005843144A10600020F4
:1013E0000021134B1860596012490B6A1B021B0A3B
:1013F0008020000603430B621368013B0E4A9342B0
:101400000CD80E4A53600B6A1B021B0AC020000650
:1014100003430B62002393600733136008BDC0468B
:101420002C00002040420F00B8000020A80000203F
:10143000B000002000ED00E0FFFFFF0010E000E042
:1014400030B50025074B1A685B68291C8018594184
:10145000044B1A685B689942FAD801D19042F7D8D8
:1014600030BDC046B0000020044B1A685B6899424A
:10147000FAD801D19042F7D87047C046B00000209A
:10148000F8B5061C72B61F4B98681F4B1F68391CB5
:1014900000F0C2FE1D4B1C685D6862B6864210D922
:1014A000361A701EFA21890000F046FF01301849F3
:1014B0004143711849427943021C0023A4185D413D
:1014C00003E0811B794300E0C046104B1A685B685B
:1014D0009D420FD801D194420CD80A4B9B68994287
:1014E0000AD20A4B1A685B68A24201D1AB4205D00E
:1014F000002304E0012302E0002300E00123002B8D
:10150000E2D1F8BD10E000E0B8000020B0000020FB
:1015100018FCFFFF08B5024B1B68984708BDC04682
:10152000300000200160002343608360C3604B688B
:101530000361704710B50369002B1AD0013B0361AA
:10154000026883685C1C84605468A34202D21268FB
:10155000D31800E0084B197003685B6882689A42F0
:1015600001D3002383600C30012100F007F8012033
:1015700000E0002010BDC046BC00002072B6036829
:101580005918016062B67047014B03607047C0464E
:10159000D82B0008F0B5474680B4071C344B9E6832
:1015A000344B186859680122002380185941FA22E7
:1015B0009200002300F0D2FF041C0D1C301C2E4BA7
:1015C000196800F029FE021C0023A41A9D41223351
:1015D000FA5C213B93409AB290461B041E0C301CCF
:1015E000FEF79CFF00283FD0301CFFF709F8F86891
:1015F000FFF7A8F843461840C31A5A425A41D3B2DB
:10160000398C022930D9102901D1002B2CD101228B
:101610000A409A4202D000233B8425E0632902D18C
:1016200001233B8420E0002B02D03C617D6119E066
:101630000B1C133B9BB24F2B14D83B69E41ABA69BD
:10164000FB69151C1E1CAD185E41322C02D9012409
:10165000002001E000240020221C2A43331C034305
:10166000BA61FB610131398404BC9046F0BDC046CB
:1016700010E000E0B0000020B800002010B5041C0D
:10168000024B036000F0C4FD201C10BDD82B0008E5
:1016900010B5041C0C480830206064600020A06075
:1016A000E160222162542322A354002200232261FC
:1016B000636101225242FF23A261E361201D02996E
:1016C00000F074FB201C10BDE82B0008F0B5474665
:1016D00080B486B0051C0023038401200121FFF79C
:1016E00035FAEB689022D20593420AD12223E95CB5
:1016F0000020FFF7A3FA802080020121FFF7FEF906
:101700000CE01C4A934209D12223E95C0120FFF737
:1017100095FA8020C0020121FFF7F0F92223EC5C4A
:101720000126331CA3401C1C9BB298462404240CA5
:1017300002A902948E71CE710E7100274F71E86874
:10174000FEF772FFE8684146FFF726F804A8049404
:101750000771102343718671FEF77AFE01A82323D7
:10176000EB5C037047708670FFF7C0F806B004BCEE
:101770009046F0BD0004004838B5041C01225242D6
:10178000FF238261C361022303842033C55C213BB4
:10179000AB409DB2C068291CFFF72EF80220FFF76E
:1017A0004FFEE068291CFEF7F7FF1023238438BDA5
:1017B00030B5038C012B16D000231DE0D40020216E
:1017C0004942611803D4C469CC40211C07E020259C
:1017D0002D1BC169A9400D1C8169E14029435B189B
:1017E000DBB2013201E001220023042AE6DD027EA1
:1017F0009B1A59425941CBB200220284181C30BDB9
:10180000C3691A0683691B0A134398B21A0403D5E5
:101810005B045B0C5B4298B200B27047C3691B0269
:10182000C07E18430005000D7047C04630B583B038
:10183000041C1D1C0260416000238360037343731A
:1018400001200121FFF75AF96068FEF701FD01A8A8
:101850000123437083700570FFF748F8201C03B024
:1018600030BDC04608B5012823D1124B994220D182
:101870001148124902220923FFF7D8FF10481149E5
:1018800020220A23FFF7D2FF0F481049802292003E
:101890000A23FFF7CBFF0E480E49802292010B234B
:1018A000FFF7C4FF0C480D49802292020B23FFF77B
:1018B000BDFF08BDFFFF0000C0000020080002407F
:1018C000D00000201C000240E00000203000024058
:1018D000F0000020440002400001002058000240B7
:1018E00010B5041C0068FEF72FFD431E9841C3B2DB
:1018F0006373A068002804D0002B02D003689B68A3
:1019000098472068FEF792FD10BDC04608B5024812
:10191000FFF7E6FF08BDC046C000002008B5034839
:10192000FFF7DEFF0248FFF7DBFF08BDD000002015
:10193000E000002008B50348FFF7D2FF0248FFF798
:10194000CFFF08BDF00000200001002008B50120F5
:101950000149FFF787FF08BDFFFF0000F0B55F46B4
:1019600056464546E0B482B0051C01919B460A9F4D
:101970000B1C023B222B05D923482121234A244B4F
:10198000FFF730FC012A05D81F4822211F4A214BAE
:10199000FFF728FC002F05D11B4823211B4A1E4BB3
:1019A000FFF720FCBB1800211970002804DA45421B
:1019B0002D233B70012600E00026531E9A461C1C76
:1019C0000FE03B199846281C019900F0ABFC134B23
:1019D0005B5C42461370013C281C019900F01CFC22
:1019E000051CB44207DB002DEBD15445E9DA02E0D7
:1019F0005B463B55013CB442FADA381C02B01CBCD1
:101A000090469A46A346F0BD3C2C00082C2D0008B9
:101A1000502C0008682C0008742C0008802C00084A
:101A2000F0B54F464646C0B483B0051C01919846B8
:101A30000A9F0B1C023B222B05D91E483A211E4A45
:101A40001E4BFFF7CFFB002A05D11A483B211A4A4B
:101A50001B4BFFF7C7FB002F05D116483C21164A48
:101A6000184BFFF7BFFBBB1800211970531E994696
:101A70001C1C0DE03E19281C019900F053FC124B70
:101A80005B5C3370013C281C019900F0C5FB051C10
:101A9000002C07DB002DEDD14C45EBDA02E043468C
:101AA0003B55013C002CFADA381C03B00CBC9046C4
:101AB0009946F0BD3C2C0008FC2B0008502C000877
:101AC000A82C0008742C0008802C0008F0B55F4694
:101AD00056464D464446F0B483B00F1C151C1E1CE0
:101AE0000CAB10CB1B785BB29B46002C02D0E31CE6
:101AF000B34209D9002C01D1012E05D82A484D2125
:101B00002A4A2B4BFFF76EFB0E9B002B05D1264874
:101B10004E21264A274BFFF765FBC30F9A4600D09C
:101B200040428046391C00F077FB814600230122A9
:101B300001E06A430133A342FBD34846784343465E
:101B4000181A0021002300F009FD3A1C002300F0C0
:101B5000E5FC071C002C01D0331B5E1E5346002BF6
:101B600002D04B46584200E048460E9B0093291C89
:101B7000321C5B46FFF7F2FE002C0CD02E230E9A8F
:101B80009355731C944663440093381C291C221CF3
:101B90003023FFF745FF0E9803B03CBC90469946B2
:101BA000A246AB46F0BDC0463C2C00086C2D000898
:101BB000B42C0008742C0008014B03607047C04629
:101BC000D82B0008F0B5474680B4071C1D4B9E6813
:101BD0001D4B186859680122002380185941FA22C8
:101BE0009200002300F0BAFC041C0D1C301C174BA3
:101BF000196800F011FB021C0023A41A9D417A7F92
:101C0000013393409AB290461B041E0C301CFEF721
:101C100085FC002812D0301CFEF7F2FCB869FEF7F4
:101C200091FD43461840804502D1BC60FD6005E04F
:101C3000BA68FB68134301D0A41A7C6004BC9046C8
:101C4000F0BDC04610E000E0B0000020B800002069
:101C500010B5041C024B036000F0DAFA201C10BD22
:101C6000D82B000838B5041C04A805780A480830A9
:101C70002060246100206061A16122776377A577ED
:101C800000220023A260E3606060201C10300599F0
:101C900000F08CF8201C38BDC82D0008F0B54F4668
:101CA0004646C0B487B0071C01200121FEF74EFF55
:101CB000BB699022D205934209D180208002012184
:101CC000FEF71CFF797F0020FEF7B8FF0BE0254AE6
:101CD000934208D18020C0020121FEF70FFF797FD7
:101CE0000120FEF7ABFF3B7F0126321C9A40131CFC
:101CF00092B290467D7F321CAA40151C02AC1B0498
:101D00001B0C029300239946A371E3712671637142
:101D1000B869211CFEF788FCB8694146FEF76CFDE6
:101D20002D042D0C0295A6714B46E371237166714B
:101D3000B869211CFEF778FC04A804954B46037192
:101D4000102343718671FEF783FB01A806230370FD
:101D50004B4643708670FEF7C9FD07B00CBC904639
:101D60009946F0BD0004004838B5051C00234360C7
:101D7000002200238260C360047F0123A3409CB241
:101D80008069211CFEF708FD0F20FFF779FBA86989
:101D9000211CFEF731FD38BD08B54368AA20584321
:101DA000FA21890000F038FA80B208BD0B68436060
:101DB0000860704710B5054B1C6804E02068036894
:101DC0009B6898476468002CF8D110BD180100206A
:101DD00010B5054B1C6804E0206803689B689847B1
:101DE0006468002CF8D110BD1401002010B5054B1B
:101DF0001C6804E0206803689B6898476468002CAE
:101E0000F8D110BD1001002070B582B0041C0D1C6B
:101E1000012824D1194B994221D119490B1C0833AF
:101E20000B6020234B60174E301CFFF77BFB1648DE
:101E30001649321C00F0EEF8154B00931548164970
:101E400001220523FFF724FC06230093134B019383
:101E500013489021C90503220223FFF703FF002C3A
:101E60000AD1064B9D4207D10E4B0D4A1360094A19
:101E70001360054800F0EAF802B070BDFFFF0000F3
:101E80009C010020C40100202002002000380140F5
:101E900018010020D801002000040048140100208F
:101EA00000020020D82B0008F0B55F465646454694
:101EB000E0B486B04348FFF7F1FE4348FFF706FC65
:101EC0004248E121490200F03FF9414B1E685F683A
:101ED000FA2292000023B6185F4100239846301C76
:101EE000391CFFF7C1FA01239C46E0443548FFF74F
:101EF0003BFF4346DB0604D13348FFF73DFC012599
:101F000000E000251E20002180197941FFF7ACFA7E
:101F10002C48FFF741FF2F4C00940A210422302364
:101F2000FFF77EFD20232371002363712748211CC6
:101F300000F036F9002D40D02448274900F030F950
:101F40002148FFF735FC002833D01F4D281CFFF730
:101F500057FC041C281CFFF761FC059001239B46DD
:101F600000932F339A4601931A4D0295201C0A21A3
:101F70000A222C3BFFF7AAFD144C201C291C00F060
:101F80000FF9201C154900F00BF95B4600935346EE
:101F90000193029505980A210A222C3BFFF796FD32
:101FA000201C291C00F0FCF8201C0D4900F0F8F85A
:101FB00003E006480B4900F0FFF864220023B6183E
:101FC0005F418CE700020020D801002020020020A1
:101FD000B00000201C010020DC2D0008E02D0008CE
:101FE000E42D0008E82D000808B5FFF7EBF9FFF72E
:101FF0005BFFC04608B501200149FFF705FF08BD9A
:10200000FFFF000008B500200149FFF7FDFE08BDF5
:10201000FFFF000008B50160426000230372064B19
:10202000994205D005483921054A064BFFF7DAF8F1
:10203000054B186008BDC04600380140442E00081A
:10204000142E0008582E00082C02002010B5041C85
:1020500000680021FEF73CFF044B1B689C4202D144
:102060000022024B1A60201C10BDC0462C0200202A
:10207000F0B5474680B486B0071C01912D4B02682D
:102080009A424DD18020C0010121FEF75FFD8020E2
:1020900080020121FEF732FD03AD1B232B7004AC3F
:1020A0008023DB0004930026A67101239846E37188
:1020B000267166719020C005211CFEF7B5FA8023B9
:1020C0009B000493A671E671FF3BFF3B23719020B8
:1020D000C005211CFEF7A8FA9020C00509210122A5
:1020E000FEF7BAFB9020C0050A210122FEF7B4FBDF
:1020F0003868FEF7C7FD38680199FEF717FE03231D
:102100006B704346AB70281CFEF7F0FB38680A4939
:102110000122FEF75FFF38680121FEF7D9FE05E0D6
:1021200006488921064A074BFFF75CF806B004BC55
:102130009046F0BD0038014005010500442E00081E
:10214000EC2D0008582E000800B587B00091002340
:102150000193029303930C22049205936946FFF7BF
:1021600087FF07B000BDC046F8B5002917D0171C7F
:102170000E1C041C00250AE020688021FEF7ACFF3D
:102180000028F9D0795D2068FEF7D4FE0135B5420C
:10219000F2D320684021FEF79FFF0028F9D0F8BD58
:1021A00038B5051C0C1C081C00F056FC011C281C32
:1021B000221CFFF7D9FF38BD10B5041CFFF7F0FF54
:1021C000201C0221014AFFF7CFFF10BDDC2D0008C3
:1021D00010B5041C00682021FEF77EFF00280BD0FC
:1021E0002068FEF7D5FEC1B26068FFF7A3F90123AE
:1021F0005840237A1843207210BDC04608B5034BDF
:102200001868002801D0FFF7E3FF08BD2C0200206A
:1022100008B500F0D1FB08BD002243088B4274D3FF
:1022200003098B425FD3030A8B4244D3030B8B42D7
:1022300028D3030C8B420DD3FF22090212BA030CE0
:102240008B4202D31212090265D0030B8B4219D3C1
:1022500000E0090AC30B8B4201D3CB03C01A5241E1
:10226000830B8B4201D38B03C01A5241430B8B4229
:1022700001D34B03C01A5241030B8B4201D30B0312
:10228000C01A5241C30A8B4201D3CB02C01A524139
:10229000830A8B4201D38B02C01A5241430A8B42FC
:1022A00001D34B02C01A5241030A8B4201D30B02E5
:1022B000C01A5241CDD2C3098B4201D3CB01C01AFF
:1022C000524183098B4201D38B01C01A5241430909
:1022D0008B4201D34B01C01A524103098B4201D3F7
:1022E0000B01C01A5241C3088B4201D3CB00C01A64
:1022F000524183088B4201D38B00C01A52414308DC
:102300008B4201D34B00C01A5241411A00D2014600
:10231000524110467047FFE701B5002000F0FCF87D
:1023200002BDC0460029F7D003B5FFF775FF0EBC0C
:102330004243891A1847C04603460B437FD4002204
:1023400043088B4274D303098B425FD3030A8B4249
:1023500044D3030B8B4228D3030C8B420DD3FF22B3
:10236000090212BA030C8B4202D31212090265D081
:10237000030B8B4219D300E0090AC30B8B4201D334
:10238000CB03C01A5241830B8B4201D38B03C01A7B
:102390005241430B8B4201D34B03C01A5241030BF2
:1023A0008B4201D30B03C01A5241C30A8B4201D3A3
:1023B000CB02C01A5241830A8B4201D38B02C01A4E
:1023C0005241430A8B4201D34B02C01A5241030AC5
:1023D0008B4201D30B02C01A5241CDD2C3098B42AA
:1023E00001D3CB01C01A524183098B4201D38B0127
:1023F000C01A524143098B4201D34B01C01A5241CA
:1024000003098B4201D30B01C01A5241C3088B420E
:1024100001D3CB00C01A524183088B4201D38B00F9
:10242000C01A524143088B4201D34B00C01A52419B
:10243000411A00D201465241104670475DE0CA0F72
:1024400000D04942031000D34042534000229C4632
:1024500003098B422DD3030A8B4212D3FC2289013C
:1024600012BA030A8B420CD3890192118B4208D312
:10247000890192118B4204D389013AD0921100E074
:102480008909C3098B4201D3CB01C01A5241830988
:102490008B4201D38B01C01A524143098B4201D3B5
:1024A0004B01C01A524103098B4201D30B01C01AE0
:1024B0005241C3088B4201D3CB00C01A524183085A
:1024C0008B4201D38B00C01A5241D9D243088B42B0
:1024D00001D34B00C01A5241411A00D20146634653
:1024E00052415B10104601D34042002B00D54942B7
:1024F000704763465B1000D3404201B5002000F0F6
:102500000BF802BD0029F8D003B5FFF715FF0EBC8C
:102510004243891A1847C0467047C046002B11D164
:10252000002A0FD1002900D1002802D00021C94380
:10253000081C07B4024802A14018029003BDC0461F
:10254000D9FFFFFF03B4684601B5029800F04CF8CC
:10255000019B9E4602B00CBC7047C046F0B54F468A
:10256000464605042D0C2C1CC0B41704160C3F0C59
:102570009946030C7C4375435F4373437D19260CD6
:10258000AD199C46AF4203D980235B029846C444F0
:102590004B465143434324042E0C240C2D04664423
:1025A0002C1959188919201C0CBC90469946F0BD6D
:1025B000F0B583B0161C1F1C0090019100F04CF880
:1025C000041C0D1C221C2B1C301C391CFFF7C6FFE1
:1025D000009A019B121A8B410899201C0A604B60DB
:1025E000291C03B0F0BDC046F0B5141C83B01D1CFF
:1025F0000090019100F028F9221C2B1C061C0F1CD6
:10260000FFF7ACFF009A019B121A8B410899301C0E
:102610000A604B60391C03B0F0BDC0461C21012389
:102620001B04984201D3000C10391B0A984201D3B5
:10263000000A08391B09984201D30009043902A293
:10264000105C40187047C0460403020201010101FA
:102650000000000000000000F0B544465F4656460A
:102660004D46F0B41C1C85B0002900DAA9E00F1C0F
:102670000021061C8846101C191C002C00DA97E06B
:10268000341C3D1C82468946B94273D870D04946F5
:10269000504600F085F98346391C301C00F080F963
:1026A0005B46181A031C8346203B9C4600D59CE0E1
:1026B0000023002251460092019363469940019104
:1026C00051468140019B0091BB4200D983E000D17B
:1026D0007EE0009A019B341C3D1CA41A9D41634678
:1026E000002B00DA9AE000260027029603970136B5
:1026F0009E400396012686400296002800D171E094
:102700000099019AD30799464B464E081E43570835
:10271000002301220CE0AF4201D1A6420AD8A41B3B
:10272000BD4124196D410138A4185D41002806D02F
:10273000AF42F0D9013824196D410028F8D1202288
:10274000029E039F5B46524236196F4199185AD434
:10275000281CC8402C1C5B46DC40002968DB041C9C
:102760008C40231C59468840021CB61A9F4103E046
:10277000B0428CD90026002741464B1E99410023C8
:1027800000910193009A019B002554429D41331C06
:102790006340181C3B1C6B40191C009B019CC0181B
:1027A000614105B03CBC90469946A246AB46F0BD9F
:1027B0004346DB430C1C9846131C00215842A141A0
:1027C0005EE7002746428F4101214942884652E791
:1027D000B14200D87DE70026002702960397002823
:1027E00000D08DE7029E039FC6E720215346091AB9
:1027F000CB400022191C0023009201934B468340DA
:102800000B4301935CE75A4620239B1A2A1C9A40EB
:10281000201C131C5A46D04018439BE72026002753
:10282000331A0026029603970127DF40039761E7DA
:102830005B4620215D46C91A031CAC40CB40191CE5
:10284000231C0B438EE7C046F0B545464E4657461F
:10285000E0B4041C82B00D1C914698468B4262D8AD
:102860005FD04146484600F09BF8291C061C201CFE
:1028700000F096F82023311A5B428A46C81865D4C6
:102880004B4683401F1C4B468B401E1CAF4258D802
:1028900055D0A41BBD41002800DA77E000220023B8
:1028A0000092019301328240019201238B400093F8
:1028B00000293CD0FB079846404672087B0802433B
:1028C000012600270CE0AB4201D1A2420AD8A41A8B
:1028D0009D4124196D410139A4197D41002906D07B
:1028E000AB42F0D9013924196D410029F8D12022D9
:1028F0000098019953465242001969419E183AD4F2
:102900002F1CF7405346DD40002E29DB3C1CB44011
:10291000231C5446A7403A1C801A9941009001910B
:1029200005E082429DD90023002400930194009881
:10293000019902B01CBC90469946A246F0BDA34244
:10294000A7D90022002300920193B1E720224B4631
:10295000521AD3401A1C43468B401F1C174392E760
:10296000534620245646E41A3B1CB540E3401C1C49
:102970002B1C2343CDE7524620239B1A2A1C9A4046
:10298000271C131C5246D7401F43BBE720230022BD
:10299000581A0023009201930132C240019284E749
:1029A00010B5002903D1FFF739FE203002E0081CE2
:1029B000FFF734FE10BDC04608B5034B011C186874
:1029C00000F004F808BDC0469400002030B500298E
:1029D0003ED004390B68002B00DAC9181D4A136871
:1029E000141C002B02D14B60116031E099420DD2D2
:1029F00008680A189A4203D11368C3180B60536819
:102A00004B60216024E08A4203D8131C5A68002AD4
:102A1000F9D11D685C198C420BD1096869185818E6
:102A20001960904214D110685268091819605A60F0
:102A30000EE08C4202D90C23036009E008680C18F0
:102A4000944203D114685268001908604A605960C2
:102A500030BDC046300200200023C25C0133002A92
:102A6000FBD1581E704700002E2E2F7379737465AA
:102A70006D2F7372632F73746D333266302D7374E0
:102A8000647065726970682F73746D333266307864
:102A9000785F646D612E63002E2E2F7379737465D9
:102AA0006D2F7372632F73746D333266302D7374B0
:102AB000647065726970682F73746D333266307834
:102AC000785F657874692E63000000002E2E2F73E6
:102AD000797374656D2F7372632F73746D333266FF
:102AE000302D7374647065726970682F73746D3300
:102AF00032663078785F6770696F2E63000000007F
:102B00002E2E2F73797374656D2F7372632F737408
:102B10006D333266302D7374647065726970682F1E
:102B200073746D3332663078785F6D6973632E63CA
:102B3000000000002E2E2F73797374656D2F737251
:102B4000632F73746D333266302D737464706572E5
:102B50006970682F73746D3332663078785F726392
:102B6000632E63002E2E2F73797374656D2F73722D
:102B7000632F73746D333266302D737464706572B5
:102B80006970682F73746D3332663078785F73794B
:102B9000736366672E6300002E2E2F73797374653E
:102BA0006D2F7372632F73746D333266302D7374AF
:102BB000647065726970682F73746D333266307833
:102BC000785F75736172742E63000000000000006E
:102BD00000000000000000000000000000000000F5
:102BE000C11100080000000000000000000000000B
:102BF000891500087D160008951500086368617244
:102C00002A2075746F7374722875696E7433325F1D
:102C1000742C20756E7369676E656420696E742C00
:102C200020756E7369676E656420696E742C20630D
:102C30006861722C20636861722A29002E2E2F731E
:102C400072632F64746F737472662E637070000009
:102C500062617365203E2031202626206261736503
:102C6000203C3D20333600007769647468203E3D87
:102C70002032000062756620213D203000000000F7
:102C800030313233343536373839414243444546A2
:102C90004748494A4B4C4D4E4F505152535455564C
:102CA0005758595A000000007769647468203E3D07
:102CB000203100002870726563203E2030202626D7
:102CC000207769647468203E3D20707265632B3301
:102CD00029207C7C202870726563203D3D203020B7
:102CE0002626207769647468203E3D203229000042
:102CF0002870726563203E20302026262077696484
:102D00007468203E3D20707265632B3229207C7CE4
:102D1000202870726563203D3D20302026262077D4
:102D200069647468203E3D20312900006368617247
:102D30002A2069746F73747228696E7433325F74F9
:102D40002C20756E7369676E656420696E742C2023
:102D5000756E7369676E656420696E742C20636894
:102D600061722C20636861722A29000063686172B5
:102D70002A2064746F7374727828696E7433325FBA
:102D8000742C20756E7369676E656420696E742C8F
:102D900020756E7369676E656420696E742C20758A
:102DA0006E7369676E656420696E742C20756E732E
:102DB00069676E656420696E742C20636861722C8B
:102DC00020636861722A29000000000000000000F2
:102DD000B91B0008511C0008C51B00080D0A0000A3
:102DE000430D0A00250D0A002D000000766F69646E
:102DF0002053657269616C3A3A7365747570285531
:102E0000534152545F496E697454797065446566E4
:102E10002A29000053657269616C3A3A53657269F8
:102E2000616C2855534152545F547970654465660E
:102E30002A2C20626F756E6465645F6275666665D4
:102E4000722A29002E2E2F7372632F7365726961A7
:102E50006C2E6370700000002122696E76616C69CF
:102E6000642055534152542073656C656374696FD7
:062E70006E220000430089
:082E7800E0F7FF7F01000000FC
:102E8000785634120000000001020304010203041A
:102E900006070809A4000020000000000000000050
:102EA000000000000102030406070809006CDC02B0
:102EB000A91300080000000000000000000000004E
:102EC0000000000000000000000000000000000002
:102ED00000000000742E0008000000000000000048
:102EE00000000000000000000000000000000000E2
:102EF00000000000000000000000000000000000D2
:102F000000000000000000000000000000000000C1
:0C2F1000000000003400002032547698CD
:04000005080000C52A
:00000001FF
